{
  "contractName": "PublishContent",
  "abi": [
    {
      "constant": true,
      "inputs": [],
      "name": "nextId",
      "outputs": [
        {
          "internalType": "uint256",
          "name": "",
          "type": "uint256"
        }
      ],
      "payable": false,
      "stateMutability": "view",
      "type": "function"
    },
    {
      "constant": true,
      "inputs": [
        {
          "internalType": "uint256",
          "name": "",
          "type": "uint256"
        }
      ],
      "name": "users",
      "outputs": [
        {
          "internalType": "uint256",
          "name": "id",
          "type": "uint256"
        },
        {
          "internalType": "string",
          "name": "name",
          "type": "string"
        },
        {
          "internalType": "string",
          "name": "text",
          "type": "string"
        }
      ],
      "payable": false,
      "stateMutability": "view",
      "type": "function"
    },
    {
      "constant": false,
      "inputs": [
        {
          "internalType": "string",
          "name": "name",
          "type": "string"
        },
        {
          "internalType": "string",
          "name": "text",
          "type": "string"
        }
      ],
      "name": "create",
      "outputs": [],
      "payable": false,
      "stateMutability": "nonpayable",
      "type": "function"
    },
    {
      "constant": false,
      "inputs": [
        {
          "internalType": "uint256",
          "name": "id",
          "type": "uint256"
        },
        {
          "internalType": "string",
          "name": "_text",
          "type": "string"
        }
      ],
      "name": "publish",
      "outputs": [],
      "payable": false,
      "stateMutability": "nonpayable",
      "type": "function"
    },
    {
      "constant": true,
      "inputs": [
        {
          "internalType": "uint256",
          "name": "id",
          "type": "uint256"
        }
      ],
      "name": "read",
      "outputs": [
        {
          "internalType": "uint256",
          "name": "",
          "type": "uint256"
        },
        {
          "internalType": "string",
          "name": "",
          "type": "string"
        },
        {
          "internalType": "string",
          "name": "",
          "type": "string"
        }
      ],
      "payable": false,
      "stateMutability": "view",
      "type": "function"
    },
    {
      "constant": false,
      "inputs": [
        {
          "internalType": "uint256",
          "name": "id",
          "type": "uint256"
        },
        {
          "internalType": "string",
          "name": "text",
          "type": "string"
        }
      ],
      "name": "update",
      "outputs": [],
      "payable": false,
      "stateMutability": "nonpayable",
      "type": "function"
    },
    {
      "constant": false,
      "inputs": [
        {
          "internalType": "uint256",
          "name": "id",
          "type": "uint256"
        }
      ],
      "name": "del",
      "outputs": [],
      "payable": false,
      "stateMutability": "nonpayable",
      "type": "function"
    },
    {
      "constant": true,
      "inputs": [
        {
          "internalType": "uint256",
          "name": "id",
          "type": "uint256"
        },
        {
          "internalType": "uint256",
          "name": "start",
          "type": "uint256"
        },
        {
          "internalType": "uint256",
          "name": "end",
          "type": "uint256"
        }
      ],
      "name": "binarySearch",
      "outputs": [
        {
          "internalType": "bool",
          "name": "",
          "type": "bool"
        }
      ],
      "payable": false,
      "stateMutability": "view",
      "type": "function"
    }
  ],
  "bytecode": "0x608060405234801561001057600080fd5b50610efc806100206000396000f3fe608060405234801561001057600080fd5b50600436106100885760003560e01c806357771a231161005b57806357771a231461041857806361b8ce8c14610446578063ed2e5a9714610464578063f745630f1461057e57610088565b8063055f7ec81461008d5780630560c7a8146100e7578063198e2b8a146101ac578063365b98b2146102fe575b600080fd5b6100cd600480360360608110156100a357600080fd5b81019080803590602001909291908035906020019092919080359060200190929190505050610643565b604051808215151515815260200191505060405180910390f35b6101aa600480360360408110156100fd57600080fd5b81019080803590602001909291908035906020019064010000000081111561012457600080fd5b82018360208201111561013657600080fd5b8035906020019184600183028401116401000000008311171561015857600080fd5b91908080601f016020809104026020016040519081016040528093929190818152602001838380828437600081840152601f19601f8201169050808301925050505050505091929192905050506106d5565b005b6102fc600480360360408110156101c257600080fd5b81019080803590602001906401000000008111156101df57600080fd5b8201836020820111156101f157600080fd5b8035906020019184600183028401116401000000008311171561021357600080fd5b91908080601f016020809104026020016040519081016040528093929190818152602001838380828437600081840152601f19601f8201169050808301925050505050505091929192908035906020019064010000000081111561027657600080fd5b82018360208201111561028857600080fd5b803590602001918460018302840111640100000000831117156102aa57600080fd5b91908080601f016020809104026020016040519081016040528093929190818152602001838380828437600081840152601f19601f820116905080830192505050505050509192919290505050610745565b005b61032a6004803603602081101561031457600080fd5b81019080803590602001909291905050506107ec565b604051808481526020018060200180602001838103835285818151815260200191508051906020019080838360005b83811015610374578082015181840152602081019050610359565b50505050905090810190601f1680156103a15780820380516001836020036101000a031916815260200191505b50838103825284818151815260200191508051906020019080838360005b838110156103da5780820151818401526020810190506103bf565b50505050905090810190601f1680156104075780820380516001836020036101000a031916815260200191505b509550505050505060405180910390f35b6104446004803603602081101561042e57600080fd5b8101908080359060200190929190505050610953565b005b61044e6109d5565b6040518082815260200191505060405180910390f35b6104906004803603602081101561047a57600080fd5b81019080803590602001909291905050506109db565b604051808481526020018060200180602001838103835285818151815260200191508051906020019080838360005b838110156104da5780820151818401526020810190506104bf565b50505050905090810190601f1680156105075780820380516001836020036101000a031916815260200191505b50838103825284818151815260200191508051906020019080838360005b83811015610540578082015181840152602081019050610525565b50505050905090810190601f16801561056d5780820380516001836020036101000a031916815260200191505b509550505050505060405180910390f35b6106416004803603604081101561059457600080fd5b8101908080359060200190929190803590602001906401000000008111156105bb57600080fd5b8201836020820111156105cd57600080fd5b803590602001918460018302840111640100000000831117156105ef57600080fd5b91908080601f016020809104026020016040519081016040528093929190818152602001838380828437600081840152601f19601f820116905080830192505050505050509192919290505050610bb9565b005b60008183111561065657600090506106ce565b60006002848161066257fe5b0483039050600080828154811061067557fe5b90600052602060002090600302016000015490508581141561069c576001925050506106ce565b858111156106bb576106b2868660018703610643565b925050506106ce565b6106c9866001840186610643565b925050505b9392505050565b6106e9826000600160008054905003610643565b80156106fb57506106f982610c29565b155b1561073857806000838154811061070e57fe5b90600052602060002090600302016002019080519060200190610732929190610d5a565b50610741565b610740610cec565b5b5050565b60006040518060600160405280600154815260200184815260200183815250908060018154018082558091505090600182039060005260206000209060030201600090919290919091506000820151816000015560208201518160010190805190602001906107b5929190610dda565b5060408201518160020190805190602001906107d2929190610dda565b505050506001600081548092919060010191905055505050565b600081815481106107f957fe5b9060005260206000209060030201600091509050806000015490806001018054600181600116156101000203166002900480601f0160208091040260200160405190810160405280929190818152602001828054600181600116156101000203166002900480156108ab5780601f10610880576101008083540402835291602001916108ab565b820191906000526020600020905b81548152906001019060200180831161088e57829003601f168201915b505050505090806002018054600181600116156101000203166002900480601f0160208091040260200160405190810160405280929190818152602001828054600181600116156101000203166002900480156109495780601f1061091e57610100808354040283529160200191610949565b820191906000526020600020905b81548152906001019060200180831161092c57829003601f168201915b5050505050905083565b610967816000600160008054905003610643565b8015610979575061097781610c29565b155b156109c9576000818154811061098b57fe5b90600052602060002090600302016000808201600090556001820160006109b29190610e5a565b6002820160006109c29190610e5a565b50506109d2565b6109d1610cec565b5b50565b60015481565b60006060806109f4846000600160008054905003610643565b8015610a065750610a0484610c29565b155b15610ba95760008481548110610a1857fe5b90600052602060002090600302016000015460008581548110610a3757fe5b906000526020600020906003020160010160008681548110610a5557fe5b9060005260206000209060030201600201818054600181600116156101000203166002900480601f016020809104026020016040519081016040528092919081815260200182805460018160011615610100020316600290048015610afb5780601f10610ad057610100808354040283529160200191610afb565b820191906000526020600020905b815481529060010190602001808311610ade57829003601f168201915b50505050509150808054600181600116156101000203166002900480601f016020809104026020016040519081016040528092919081815260200182805460018160011615610100020316600290048015610b975780601f10610b6c57610100808354040283529160200191610b97565b820191906000526020600020905b815481529060010190602001808311610b7a57829003601f168201915b50505050509050925092509250610bb2565b610bb1610cec565b5b9193909250565b610bcd826000600160008054905003610643565b8015610bdf5750610bdd82610c29565b155b15610c1c578060008381548110610bf257fe5b90600052602060002090600302016002019080519060200190610c16929190610d5a565b50610c25565b610c24610cec565b5b5050565b60006040516020018060000190506040516020818303038152906040528051906020012060008381548110610c5a57fe5b90600052602060002090600302016001016040516020018082805460018160011615610100020316600290048015610cc95780601f10610ca7576101008083540402835291820191610cc9565b820191906000526020600020905b815481529060010190602001808311610cb5575b505091505060405160208183030381529060405280519060200120149050919050565b6040517f08c379a00000000000000000000000000000000000000000000000000000000081526004018080602001828103825260138152602001807f5573657220646f6573206e6f742065786973740000000000000000000000000081525060200191505060405180910390fd5b828054600181600116156101000203166002900490600052602060002090601f016020900481019282601f10610d9b57805160ff1916838001178555610dc9565b82800160010185558215610dc9579182015b82811115610dc8578251825591602001919060010190610dad565b5b509050610dd69190610ea2565b5090565b828054600181600116156101000203166002900490600052602060002090601f016020900481019282601f10610e1b57805160ff1916838001178555610e49565b82800160010185558215610e49579182015b82811115610e48578251825591602001919060010190610e2d565b5b509050610e569190610ea2565b5090565b50805460018160011615610100020316600290046000825580601f10610e805750610e9f565b601f016020900490600052602060002090810190610e9e9190610ea2565b5b50565b610ec491905b80821115610ec0576000816000905550600101610ea8565b5090565b9056fea265627a7a72315820867e17756ef81847628d472b6a9ef11fcd35273714d1b053540a2c4609699c5264736f6c63430005100032",
  "source": "// SPDX-License-Identifier: MIT\npragma solidity >=0.4.21 <8.10.0;\n\ncontract PublishContent {\n\n    struct User {\n        uint id; // identification used for quick searching\\\n        string name; // e.g. author's name\n        string text; // e.g. blogpost\n    }\n\n    User[] public users;\n    uint public nextId;\n\n    function create(string memory name, string memory text) public {\n        users.push(User(nextId, name, text));\n        nextId++;\n    }\n\n    function publish(uint id, string memory _text) public {\n        if (binarySearch(id, 0, users.length-1) && !strcmp(id)) users[id].text = _text; \n        else userError();\n    }\n\n    function read(uint id) view public returns(uint, string memory, string memory) {\n        if (binarySearch(id, 0, users.length-1) && !strcmp(id)) return(users[id].id, users[id].name, users[id].text);\n        userError();\n    }\n\n    function update(uint id, string memory text) public {\n        if (binarySearch(id, 0, users.length-1) && !strcmp(id)) users[id].text = text;\n        else userError();\n    }\n\n    function del(uint id) public { // will delete the id number and e.g. there will never be id 0 again if id 0 is deleted\n        if (binarySearch(id, 0, users.length-1) && !strcmp(id)) delete users[id];\n        else userError();\n    }\n\n    // internal, call just inside this contract, since view, it will not be on the blockchain view -> read-only function\n    function binarySearch(uint id, uint start, uint end) view public returns(bool) {\n        if (start > end) return false;\n        uint mid = end - start / 2;\n        uint userID = users[mid].id;\n        if (userID == id) return true;\n        if (userID > id) return binarySearch(id, start, end-1);\n        else return binarySearch(id, mid+1, end);\n    }\n\n    function strcmp(uint id) view internal returns(bool) {\n        return keccak256(abi.encodePacked(users[id].name)) == keccak256(abi.encodePacked(\"\"));\n    }\n\n\t// since pure it will not be on blockchain pure -> do not read or modify the state variables\n    function userError() pure internal {\n        revert(\"User does not exist\");\n    }\n\n}\n",
  "sourcePath": "/home/alex/Documents/SWENG-project-2022/contracts/PublishContent.sol",
  "compiler": {
    "name": "solc",
    "version": "0.5.16+commit.9c3226ce.Emscripten.clang"
  },
  "schemaVersion": "3.4.5",
  "updatedAt": "2022-02-24T01:26:39.838Z",
  "devdoc": {
    "methods": {}
  },
  "userdoc": {
    "methods": {}
  }
}