{
  "contractName": "PublishContent",
  "abi": [
    {
      "constant": true,
      "inputs": [],
      "name": "nextId",
      "outputs": [
        {
          "internalType": "uint256",
          "name": "",
          "type": "uint256"
        }
      ],
      "payable": false,
      "stateMutability": "view",
      "type": "function"
    },
    {
      "constant": true,
      "inputs": [
        {
          "internalType": "uint256",
          "name": "",
          "type": "uint256"
        }
      ],
      "name": "posts",
      "outputs": [
        {
          "internalType": "string",
          "name": "text",
          "type": "string"
        },
        {
          "internalType": "string",
          "name": "postTitle",
          "type": "string"
        },
        {
          "internalType": "string",
          "name": "date",
          "type": "string"
        },
        {
          "internalType": "uint256",
          "name": "postId",
          "type": "uint256"
        }
      ],
      "payable": false,
      "stateMutability": "view",
      "type": "function"
    },
    {
      "constant": true,
      "inputs": [
        {
          "internalType": "uint256",
          "name": "",
          "type": "uint256"
        }
      ],
      "name": "users",
      "outputs": [
        {
          "internalType": "uint256",
          "name": "id",
          "type": "uint256"
        },
        {
          "internalType": "string",
          "name": "name",
          "type": "string"
        }
      ],
      "payable": false,
      "stateMutability": "view",
      "type": "function"
    },
    {
      "constant": false,
      "inputs": [
        {
          "internalType": "string",
          "name": "_text",
          "type": "string"
        },
        {
          "internalType": "string",
          "name": "_postTitle",
          "type": "string"
        },
        {
          "internalType": "string",
          "name": "_date",
          "type": "string"
        },
        {
          "internalType": "uint256",
          "name": "_postId",
          "type": "uint256"
        }
      ],
      "name": "createPost",
      "outputs": [],
      "payable": false,
      "stateMutability": "nonpayable",
      "type": "function"
    },
    {
      "constant": false,
      "inputs": [
        {
          "internalType": "uint256",
          "name": "_id",
          "type": "uint256"
        },
        {
          "internalType": "string",
          "name": "_name",
          "type": "string"
        },
        {
          "internalType": "uint256[]",
          "name": "postIds",
          "type": "uint256[]"
        }
      ],
      "name": "create",
      "outputs": [],
      "payable": false,
      "stateMutability": "nonpayable",
      "type": "function"
    },
    {
      "constant": false,
      "inputs": [
        {
          "internalType": "uint256",
          "name": "_id",
          "type": "uint256"
        },
        {
          "internalType": "uint256[]",
          "name": "arrayId",
          "type": "uint256[]"
        }
      ],
      "name": "pushPostToUser",
      "outputs": [],
      "payable": false,
      "stateMutability": "nonpayable",
      "type": "function"
    },
    {
      "constant": false,
      "inputs": [
        {
          "internalType": "uint256",
          "name": "_id",
          "type": "uint256"
        },
        {
          "internalType": "string",
          "name": "_postTitle",
          "type": "string"
        }
      ],
      "name": "renamePostTitle",
      "outputs": [],
      "payable": false,
      "stateMutability": "nonpayable",
      "type": "function"
    },
    {
      "constant": false,
      "inputs": [
        {
          "internalType": "uint256",
          "name": "_id",
          "type": "uint256"
        }
      ],
      "name": "removePublish",
      "outputs": [],
      "payable": false,
      "stateMutability": "nonpayable",
      "type": "function"
    },
    {
      "constant": true,
      "inputs": [
        {
          "internalType": "uint256",
          "name": "_id",
          "type": "uint256"
        }
      ],
      "name": "readName",
      "outputs": [
        {
          "internalType": "string",
          "name": "",
          "type": "string"
        }
      ],
      "payable": false,
      "stateMutability": "view",
      "type": "function"
    },
    {
      "constant": true,
      "inputs": [
        {
          "internalType": "uint256",
          "name": "_id",
          "type": "uint256"
        }
      ],
      "name": "readPostsIdsOfUser",
      "outputs": [
        {
          "internalType": "uint256[]",
          "name": "",
          "type": "uint256[]"
        }
      ],
      "payable": false,
      "stateMutability": "view",
      "type": "function"
    },
    {
      "constant": true,
      "inputs": [
        {
          "internalType": "uint256",
          "name": "_id",
          "type": "uint256"
        }
      ],
      "name": "readText",
      "outputs": [
        {
          "internalType": "string",
          "name": "",
          "type": "string"
        }
      ],
      "payable": false,
      "stateMutability": "view",
      "type": "function"
    },
    {
      "constant": true,
      "inputs": [
        {
          "internalType": "uint256",
          "name": "_id",
          "type": "uint256"
        }
      ],
      "name": "readPostTitle",
      "outputs": [
        {
          "internalType": "string",
          "name": "",
          "type": "string"
        }
      ],
      "payable": false,
      "stateMutability": "view",
      "type": "function"
    },
    {
      "constant": false,
      "inputs": [
        {
          "internalType": "uint256",
          "name": "_id",
          "type": "uint256"
        }
      ],
      "name": "del",
      "outputs": [],
      "payable": false,
      "stateMutability": "nonpayable",
      "type": "function"
    },
    {
      "constant": true,
      "inputs": [
        {
          "internalType": "uint256",
          "name": "_id",
          "type": "uint256"
        }
      ],
      "name": "searchUser",
      "outputs": [
        {
          "internalType": "bool",
          "name": "",
          "type": "bool"
        }
      ],
      "payable": false,
      "stateMutability": "view",
      "type": "function"
    },
    {
      "constant": true,
      "inputs": [],
      "name": "getNextId",
      "outputs": [
        {
          "internalType": "uint256",
          "name": "",
          "type": "uint256"
        }
      ],
      "payable": false,
      "stateMutability": "view",
      "type": "function"
    }
  ],
  "bytecode": "0x6080604052600060025534801561001557600080fd5b50611892806100256000396000f3fe608060405234801561001057600080fd5b50600436106100f55760003560e01c80635d20779d116100975780639405d9ac116100665780639405d9ac1461094d578063ae1dfdf6146109d0578063b7049e5e14610a77578063bc96832614610b39576100f5565b80635d20779d1461079b57806361b8ce8c146107e157806378f386b1146107ff578063863a20f2146108a6576100f5565b8063365b98b2116100d3578063365b98b2146104a15780633baaae671461054f57806353b4c53b1461061457806357771a231461076d576100f5565b80630b1e7f83146100fa578063144ce929146102805780632b802a9e146102ae575b600080fd5b6101266004803603602081101561011057600080fd5b8101908080359060200190929190505050610b57565b60405180806020018060200180602001858152602001848103845288818151815260200191508051906020019080838360005b83811015610174578082015181840152602081019050610159565b50505050905090810190601f1680156101a15780820380516001836020036101000a031916815260200191505b50848103835287818151815260200191508051906020019080838360005b838110156101da5780820151818401526020810190506101bf565b50505050905090810190601f1680156102075780820380516001836020036101000a031916815260200191505b50848103825286818151815260200191508051906020019080838360005b83811015610240578082015181840152602081019050610225565b50505050905090810190601f16801561026d5780820380516001836020036101000a031916815260200191505b5097505050505050505060405180910390f35b6102ac6004803603602081101561029657600080fd5b8101908080359060200190929190505050610d5c565b005b61049f600480360360808110156102c457600080fd5b81019080803590602001906401000000008111156102e157600080fd5b8201836020820111156102f357600080fd5b8035906020019184600183028401116401000000008311171561031557600080fd5b91908080601f016020809104026020016040519081016040528093929190818152602001838380828437600081840152601f19601f8201169050808301925050505050505091929192908035906020019064010000000081111561037857600080fd5b82018360208201111561038a57600080fd5b803590602001918460018302840111640100000000831117156103ac57600080fd5b91908080601f016020809104026020016040519081016040528093929190818152602001838380828437600081840152601f19601f8201169050808301925050505050505091929192908035906020019064010000000081111561040f57600080fd5b82018360208201111561042157600080fd5b8035906020019184600183028401116401000000008311171561044357600080fd5b91908080601f016020809104026020016040519081016040528093929190818152602001838380828437600081840152601f19601f82011690508083019250505050505050919291929080359060200190929190505050610e36565b005b6104cd600480360360208110156104b757600080fd5b8101908080359060200190929190505050610eee565b6040518083815260200180602001828103825283818151815260200191508051906020019080838360005b838110156105135780820151818401526020810190506104f8565b50505050905090810190601f1680156105405780820380516001836020036101000a031916815260200191505b50935050505060405180910390f35b6106126004803603604081101561056557600080fd5b81019080803590602001909291908035906020019064010000000081111561058c57600080fd5b82018360208201111561059e57600080fd5b803590602001918460018302840111640100000000831117156105c057600080fd5b91908080601f016020809104026020016040519081016040528093929190818152602001838380828437600081840152601f19601f820116905080830192505050505050509192919290505050610fb7565b005b61076b6004803603606081101561062a57600080fd5b81019080803590602001909291908035906020019064010000000081111561065157600080fd5b82018360208201111561066357600080fd5b8035906020019184600183028401116401000000008311171561068557600080fd5b91908080601f016020809104026020016040519081016040528093929190818152602001838380828437600081840152601f19601f820116905080830192505050505050509192919290803590602001906401000000008111156106e857600080fd5b8201836020820111156106fa57600080fd5b8035906020019184602083028401116401000000008311171561071c57600080fd5b919080806020026020016040519081016040528093929190818152602001838360200280828437600081840152601f19601f82011690508083019250505050505050919291929050505061107f565b005b6107996004803603602081101561078357600080fd5b8101908080359060200190929190505050611125565b005b6107c7600480360360208110156107b157600080fd5b81019080803590602001909291905050506111ff565b604051808215151515815260200191505060405180910390f35b6107e961121b565b6040518082815260200191505060405180910390f35b61082b6004803603602081101561081557600080fd5b8101908080359060200190929190505050611221565b6040518080602001828103825283818151815260200191508051906020019080838360005b8381101561086b578082015181840152602081019050610850565b50505050905090810190601f1680156108985780820380516001836020036101000a031916815260200191505b509250505060405180910390f35b6108d2600480360360208110156108bc57600080fd5b81019080803590602001909291905050506112e1565b6040518080602001828103825283818151815260200191508051906020019080838360005b838110156109125780820151818401526020810190506108f7565b50505050905090810190601f16801561093f5780820380516001836020036101000a031916815260200191505b509250505060405180910390f35b6109796004803603602081101561096357600080fd5b81019080803590602001909291905050506113a1565b6040518080602001828103825283818151815260200191508051906020019060200280838360005b838110156109bc5780820151818401526020810190506109a1565b505050509050019250505060405180910390f35b6109fc600480360360208110156109e657600080fd5b8101908080359060200190929190505050611417565b6040518080602001828103825283818151815260200191508051906020019080838360005b83811015610a3c578082015181840152602081019050610a21565b50505050905090810190601f168015610a695780820380516001836020036101000a031916815260200191505b509250505060405180910390f35b610b3760048036036040811015610a8d57600080fd5b810190808035906020019092919080359060200190640100000000811115610ab457600080fd5b820183602082011115610ac657600080fd5b80359060200191846020830284011164010000000083111715610ae857600080fd5b919080806020026020016040519081016040528093929190818152602001838360200280828437600081840152601f19601f8201169050808301925050505050505091929192905050506114f3565b005b610b4161152a565b6040518082815260200191505060405180910390f35b60008181548110610b6457fe5b9060005260206000209060040201600091509050806000018054600181600116156101000203166002900480601f016020809104026020016040519081016040528092919081815260200182805460018160011615610100020316600290048015610c105780601f10610be557610100808354040283529160200191610c10565b820191906000526020600020905b815481529060010190602001808311610bf357829003601f168201915b505050505090806001018054600181600116156101000203166002900480601f016020809104026020016040519081016040528092919081815260200182805460018160011615610100020316600290048015610cae5780601f10610c8357610100808354040283529160200191610cae565b820191906000526020600020905b815481529060010190602001808311610c9157829003601f168201915b505050505090806002018054600181600116156101000203166002900480601f016020809104026020016040519081016040528092919081815260200182805460018160011615610100020316600290048015610d4c5780601f10610d2157610100808354040283529160200191610d4c565b820191906000526020600020905b815481529060010190602001808311610d2f57829003601f168201915b5050505050908060030154905084565b8060011515610d6a826111ff565b1515148015610d7a575060008114155b610dec576040517f08c379a00000000000000000000000000000000000000000000000000000000081526004018080602001828103825260138152602001807f5573657220646f6573206e6f742065786973740000000000000000000000000081525060200191505060405180910390fd5b60018281548110610df957fe5b9060005260206000209060030201600080820160009055600182016000610e209190611635565b600282016000610e30919061167d565b50505050565b6000604051806080016040528086815260200185815260200184815260200183815250908060018154018082558091505090600182039060005260206000209060040201600090919290919091506000820151816000019080519060200190610ea092919061169e565b506020820151816001019080519060200190610ebd92919061169e565b506040820151816002019080519060200190610eda92919061169e565b506060820151816003015550505050505050565b60018181548110610efb57fe5b9060005260206000209060030201600091509050806000015490806001018054600181600116156101000203166002900480601f016020809104026020016040519081016040528092919081815260200182805460018160011615610100020316600290048015610fad5780601f10610f8257610100808354040283529160200191610fad565b820191906000526020600020905b815481529060010190602001808311610f9057829003601f168201915b5050505050905082565b8160011515610fc5826111ff565b1515148015610fd5575060008114155b611047576040517f08c379a00000000000000000000000000000000000000000000000000000000081526004018080602001828103825260138152602001807f5573657220646f6573206e6f742065786973740000000000000000000000000081525060200191505060405180910390fd5b816000848154811061105557fe5b9060005260206000209060040201600101908051906020019061107992919061171e565b50505050565b6001604051806060016040528085815260200184815260200183815250908060018154018082558091505090600182039060005260206000209060030201600090919290919091506000820151816000015560208201518160010190805190602001906110ed92919061169e565b50604082015181600201908051906020019061110a92919061179e565b50505050600260008154809291906001019190505550505050565b8060011515611133826111ff565b1515148015611143575060008114155b6111b5576040517f08c379a00000000000000000000000000000000000000000000000000000000081526004018080602001828103825260138152602001807f5573657220646f6573206e6f742065786973740000000000000000000000000081525060200191505060405180910390fd5b600182815481106111c257fe5b90600052602060002090600302016000808201600090556001820160006111e99190611635565b6002820160006111f9919061167d565b50505050565b60006112148260006001808054905003611534565b9050919050565b60025481565b60606000828154811061123057fe5b90600052602060002090600402016000018054600181600116156101000203166002900480601f0160208091040260200160405190810160405280929190818152602001828054600181600116156101000203166002900480156112d55780601f106112aa576101008083540402835291602001916112d5565b820191906000526020600020905b8154815290600101906020018083116112b857829003601f168201915b50505050509050919050565b6060600082815481106112f057fe5b90600052602060002090600402016001018054600181600116156101000203166002900480601f0160208091040260200160405190810160405280929190818152602001828054600181600116156101000203166002900480156113955780601f1061136a57610100808354040283529160200191611395565b820191906000526020600020905b81548152906001019060200180831161137857829003601f168201915b50505050509050919050565b6060600182815481106113b057fe5b906000526020600020906003020160020180548060200260200160405190810160405280929190818152602001828054801561140b57602002820191906000526020600020905b8154815260200190600101908083116113f7575b50505050509050919050565b6060611422826111ff565b156114e5576001828154811061143457fe5b90600052602060002090600302016001018054600181600116156101000203166002900480601f0160208091040260200160405190810160405280929190818152602001828054600181600116156101000203166002900480156114d95780601f106114ae576101008083540402835291602001916114d9565b820191906000526020600020905b8154815290600101906020018083116114bc57829003601f168201915b505050505090506114ee565b6114ed6115c7565b5b919050565b806001838154811061150157fe5b906000526020600020906003020160020190805190602001906115259291906117eb565b505050565b6000600254905090565b60008183111561154757600090506115c0565b60006002848161155357fe5b048303905060006001828154811061156757fe5b90600052602060002090600302016000015490508581141561158e576001925050506115c0565b858111156115ad576115a4868660018703611534565b925050506115c0565b6115bb866001840186611534565b925050505b9392505050565b6040517f08c379a00000000000000000000000000000000000000000000000000000000081526004018080602001828103825260138152602001807f5573657220646f6573206e6f742065786973740000000000000000000000000081525060200191505060405180910390fd5b50805460018160011615610100020316600290046000825580601f1061165b575061167a565b601f0160209004906000526020600020908101906116799190611838565b5b50565b508054600082559060005260206000209081019061169b9190611838565b50565b828054600181600116156101000203166002900490600052602060002090601f016020900481019282601f106116df57805160ff191683800117855561170d565b8280016001018555821561170d579182015b8281111561170c5782518255916020019190600101906116f1565b5b50905061171a9190611838565b5090565b828054600181600116156101000203166002900490600052602060002090601f016020900481019282601f1061175f57805160ff191683800117855561178d565b8280016001018555821561178d579182015b8281111561178c578251825591602001919060010190611771565b5b50905061179a9190611838565b5090565b8280548282559060005260206000209081019282156117da579160200282015b828111156117d95782518255916020019190600101906117be565b5b5090506117e79190611838565b5090565b828054828255906000526020600020908101928215611827579160200282015b8281111561182657825182559160200191906001019061180b565b5b5090506118349190611838565b5090565b61185a91905b8082111561185657600081600090555060010161183e565b5090565b9056fea265627a7a72315820d7adeee34d2a89619fcf260c2c2eae4734a6fb49eaecf842fc81adf2610a509e64736f6c63430005100032",
  "source": "// SPDX-License-Identifier: MIT\npragma solidity >=0.4.21 <8.10.0;\n\ncontract PublishContent {\n\n    struct Posts {\n        string text;        // e.g. blogpost\n        string postTitle;\n        string date; \n        uint postId;\n    }\n\n     struct User {\n        uint id;            // identification used for quick searching\n        string name;        // e.g. author's name\n        uint[] postIds;     // post id's for all the posts the user owns\n    }\n\n    Posts[] public posts;   // all posts \n    User[] public users;\n    uint public nextId = 0;\n\n    function createPost(string memory _text, \n                        string memory _postTitle, \n                        string memory _date,\n                        uint _postId) public {             \n        posts.push(Posts(_text, _postTitle, _date, _postId));\n    }\n\n    // creates new User and initialises postIds[] with postId of their first post\n    function create(uint _id, string memory _name, uint[] memory postIds) public {\n        users.push(User(_id, _name, postIds));\n        nextId++;\n    }\n\n    function pushPostToUser(uint _id, uint[] memory arrayId) public {\n        users[_id].postIds = arrayId;\n    }\n\n    function renamePostTitle(uint _id, string memory _postTitle) public mustBeUser(_id) {\n        posts[_id].postTitle = _postTitle;\n    }\n\n    // basically deletes any post given an id \n    function removePublish(uint _id) public mustBeUser(_id) { \n        delete users[_id];\n    }\n\n    function readName(uint _id) view public returns(string memory) {\n        if (searchUser(_id)) return(users[_id].name);\n        userError();\n    }\n\n    function readPostsIdsOfUser(uint _id) view public returns(uint[] memory) {\n        return(users[_id].postIds);\n    }\n\n    function readText(uint _id) view public returns(string memory) {\n        return(posts[_id].text);\n    }\n\n    function readPostTitle(uint _id) view public returns(string memory) {\n        return(posts[_id].postTitle);\n    }\n\n    // be very careful when deleting users, because even with mustBeUser, it will cost money, just how solidity works\n    function del(uint _id) public mustBeUser(_id) { // del user, will del the user and make the index unusable, *BAD IMPLEMENTATION*\n        delete users[_id];\n    }\n\n    // internal, call just inside this contract, since view, it will not be on the blockchain view -> read-only function\n    function binarySearch(uint _id, uint start, uint end) view internal returns(bool) {\n        if (start > end) return false;\n        uint mid = end - start / 2;\n        uint userID = users[mid].id;\n        if (userID == _id) return true;\n        if (userID > _id) return binarySearch(_id, start, end-1);\n        else return binarySearch(_id, mid+1, end);\n    }\n\n    function searchUser(uint _id) view public returns(bool) {\n        return binarySearch(_id, 0, users.length-1);\n    }\n\n    function isStrEmpty(uint _id) view internal returns(bool) {\n        return keccak256(abi.encodePacked(users[_id-1].name)) == keccak256(abi.encodePacked(\"\"));\n    }\n\n\t// since pure it will not be on blockchain pure -> do not read or modify the state variables\n    function userError() pure internal {\n        revert(\"User does not exist\");\n    }\n\n    modifier mustBeUser(uint _id) {\n        require(searchUser(_id) == true && _id != 0, \"User does not exist\");\n        _;\n    }\n\n    function getNextId() public view returns (uint) {\n        return nextId;\n    }\n}\n",
  "sourcePath": "/Users/alicedoherty/Development/SWENG-project-2022/contracts/PublishContent.sol",
  "compiler": {
    "name": "solc",
    "version": "0.5.16+commit.9c3226ce.Emscripten.clang"
  },
  "schemaVersion": "3.4.5",
  "updatedAt": "2022-03-13T13:42:36.867Z",
  "networkType": "ethereum",
  "devdoc": {
    "methods": {}
  },
  "userdoc": {
    "methods": {}
  }
}