{
  "contractName": "PublishContent",
  "abi": [
    {
      "constant": true,
      "inputs": [],
      "name": "nextId",
      "outputs": [
        {
          "internalType": "uint256",
          "name": "",
          "type": "uint256"
        }
      ],
      "payable": false,
      "stateMutability": "view",
      "type": "function"
    },
    {
      "constant": true,
      "inputs": [
        {
          "internalType": "uint256",
          "name": "",
          "type": "uint256"
        }
      ],
      "name": "users",
      "outputs": [
        {
          "internalType": "uint256",
          "name": "id",
          "type": "uint256"
        },
        {
          "internalType": "string",
          "name": "name",
          "type": "string"
        },
        {
          "internalType": "string",
          "name": "text",
          "type": "string"
        }
      ],
      "payable": false,
      "stateMutability": "view",
      "type": "function"
    },
    {
      "constant": false,
      "inputs": [
        {
          "internalType": "string",
          "name": "_name",
          "type": "string"
        },
        {
          "internalType": "string",
          "name": "_text",
          "type": "string"
        }
      ],
      "name": "create",
      "outputs": [],
      "payable": false,
      "stateMutability": "nonpayable",
      "type": "function"
    },
    {
      "constant": false,
      "inputs": [
        {
          "internalType": "uint256",
          "name": "_id",
          "type": "uint256"
        },
        {
          "internalType": "string",
          "name": "_text",
          "type": "string"
        }
      ],
      "name": "publish",
      "outputs": [],
      "payable": false,
      "stateMutability": "nonpayable",
      "type": "function"
    },
    {
      "constant": true,
      "inputs": [
        {
          "internalType": "uint256",
          "name": "_id",
          "type": "uint256"
        }
      ],
      "name": "readName",
      "outputs": [
        {
          "internalType": "string",
          "name": "",
          "type": "string"
        }
      ],
      "payable": false,
      "stateMutability": "view",
      "type": "function"
    },
    {
      "constant": true,
      "inputs": [
        {
          "internalType": "uint256",
          "name": "_id",
          "type": "uint256"
        }
      ],
      "name": "readText",
      "outputs": [
        {
          "internalType": "string",
          "name": "",
          "type": "string"
        }
      ],
      "payable": false,
      "stateMutability": "view",
      "type": "function"
    },
    {
      "constant": false,
      "inputs": [
        {
          "internalType": "uint256",
          "name": "_id",
          "type": "uint256"
        }
      ],
      "name": "del",
      "outputs": [],
      "payable": false,
      "stateMutability": "nonpayable",
      "type": "function"
    },
    {
      "constant": true,
      "inputs": [
        {
          "internalType": "uint256",
          "name": "_id",
          "type": "uint256"
        }
      ],
      "name": "searchUser",
      "outputs": [
        {
          "internalType": "bool",
          "name": "",
          "type": "bool"
        }
      ],
      "payable": false,
      "stateMutability": "view",
      "type": "function"
    },
    {
      "constant": true,
      "inputs": [],
      "name": "getNextId",
      "outputs": [
        {
          "internalType": "uint256",
          "name": "",
          "type": "uint256"
        }
      ],
      "payable": false,
      "stateMutability": "view",
      "type": "function"
    }
  ],
  "bytecode": "0x60806040526001805534801561001457600080fd5b50610ef8806100246000396000f3fe608060405234801561001057600080fd5b50600436106100935760003560e01c80635d20779d116100665780635d20779d146103f757806361b8ce8c1461043d57806378f386b11461045b578063ae1dfdf614610502578063bc968326146105a957610093565b80630560c7a814610098578063198e2b8a1461015d578063365b98b2146102af57806357771a23146103c9575b600080fd5b61015b600480360360408110156100ae57600080fd5b8101908080359060200190929190803590602001906401000000008111156100d557600080fd5b8201836020820111156100e757600080fd5b8035906020019184600183028401116401000000008311171561010957600080fd5b91908080601f016020809104026020016040519081016040528093929190818152602001838380828437600081840152601f19601f8201169050808301925050505050505091929192905050506105c7565b005b6102ad6004803603604081101561017357600080fd5b810190808035906020019064010000000081111561019057600080fd5b8201836020820111156101a257600080fd5b803590602001918460018302840111640100000000831117156101c457600080fd5b91908080601f016020809104026020016040519081016040528093929190818152602001838380828437600081840152601f19601f8201169050808301925050505050505091929192908035906020019064010000000081111561022757600080fd5b82018360208201111561023957600080fd5b8035906020019184600183028401116401000000008311171561025b57600080fd5b91908080601f016020809104026020016040519081016040528093929190818152602001838380828437600081840152601f19601f820116905080830192505050505050509192919290505050610692565b005b6102db600480360360208110156102c557600080fd5b8101908080359060200190929190505050610739565b604051808481526020018060200180602001838103835285818151815260200191508051906020019080838360005b8381101561032557808201518184015260208101905061030a565b50505050905090810190601f1680156103525780820380516001836020036101000a031916815260200191505b50838103825284818151815260200191508051906020019080838360005b8381101561038b578082015181840152602081019050610370565b50505050905090810190601f1680156103b85780820380516001836020036101000a031916815260200191505b509550505050505060405180910390f35b6103f5600480360360208110156103df57600080fd5b81019080803590602001909291905050506108a0565b005b6104236004803603602081101561040d57600080fd5b810190808035906020019092919050505061097d565b604051808215151515815260200191505060405180910390f35b61044561099a565b6040518082815260200191505060405180910390f35b6104876004803603602081101561047157600080fd5b81019080803590602001909291905050506109a0565b6040518080602001828103825283818151815260200191508051906020019080838360005b838110156104c75780820151818401526020810190506104ac565b50505050905090810190601f1680156104f45780820380516001836020036101000a031916815260200191505b509250505060405180910390f35b61052e6004803603602081101561051857600080fd5b8101908080359060200190929190505050610af6565b6040518080602001828103825283818151815260200191508051906020019080838360005b8381101561056e578082015181840152602081019050610553565b50505050905090810190601f16801561059b5780820380516001836020036101000a031916815260200191505b509250505060405180910390f35b6105b1610c4c565b6040518082815260200191505060405180910390f35b81600115156105d58261097d565b15151480156105e5575060008114155b610657576040517f08c379a00000000000000000000000000000000000000000000000000000000081526004018080602001828103825260138152602001807f5573657220646f6573206e6f742065786973740000000000000000000000000081525060200191505060405180910390fd5b816000600185038154811061066857fe5b9060005260206000209060030201600201908051906020019061068c929190610d56565b50505050565b6000604051806060016040528060015481526020018481526020018381525090806001815401808255809150509060018203906000526020600020906003020160009091929091909150600082015181600001556020820151816001019080519060200190610702929190610dd6565b50604082015181600201908051906020019061071f929190610dd6565b505050506001600081548092919060010191905055505050565b6000818154811061074657fe5b9060005260206000209060030201600091509050806000015490806001018054600181600116156101000203166002900480601f0160208091040260200160405190810160405280929190818152602001828054600181600116156101000203166002900480156107f85780601f106107cd576101008083540402835291602001916107f8565b820191906000526020600020905b8154815290600101906020018083116107db57829003601f168201915b505050505090806002018054600181600116156101000203166002900480601f0160208091040260200160405190810160405280929190818152602001828054600181600116156101000203166002900480156108965780601f1061086b57610100808354040283529160200191610896565b820191906000526020600020905b81548152906001019060200180831161087957829003601f168201915b5050505050905083565b80600115156108ae8261097d565b15151480156108be575060008114155b610930576040517f08c379a00000000000000000000000000000000000000000000000000000000081526004018080602001828103825260138152602001807f5573657220646f6573206e6f742065786973740000000000000000000000000081525060200191505060405180910390fd5b6000600183038154811061094057fe5b90600052602060002090600302016000808201600090556001820160006109679190610e56565b6002820160006109779190610e56565b50505050565b6000610993826000600160008054905003610c56565b9050919050565b60015481565b60606000821415610a19576040517f08c379a00000000000000000000000000000000000000000000000000000000081526004018080602001828103825260138152602001807f5573657220646f6573206e6f742065786973740000000000000000000000000081525060200191505060405180910390fd5b610a228261097d565b15610ae85760006001830381548110610a3757fe5b90600052602060002090600302016002018054600181600116156101000203166002900480601f016020809104026020016040519081016040528092919081815260200182805460018160011615610100020316600290048015610adc5780601f10610ab157610100808354040283529160200191610adc565b820191906000526020600020905b815481529060010190602001808311610abf57829003601f168201915b50505050509050610af1565b610af0610ce8565b5b919050565b60606000821415610b6f576040517f08c379a00000000000000000000000000000000000000000000000000000000081526004018080602001828103825260138152602001807f5573657220646f6573206e6f742065786973740000000000000000000000000081525060200191505060405180910390fd5b610b788261097d565b15610c3e5760006001830381548110610b8d57fe5b90600052602060002090600302016001018054600181600116156101000203166002900480601f016020809104026020016040519081016040528092919081815260200182805460018160011615610100020316600290048015610c325780601f10610c0757610100808354040283529160200191610c32565b820191906000526020600020905b815481529060010190602001808311610c1557829003601f168201915b50505050509050610c47565b610c46610ce8565b5b919050565b6000600154905090565b600081831115610c695760009050610ce1565b600060028481610c7557fe5b04830390506000808281548110610c8857fe5b906000526020600020906003020160000154905085811415610caf57600192505050610ce1565b85811115610cce57610cc5868660018703610c56565b92505050610ce1565b610cdc866001840186610c56565b925050505b9392505050565b6040517f08c379a00000000000000000000000000000000000000000000000000000000081526004018080602001828103825260138152602001807f5573657220646f6573206e6f742065786973740000000000000000000000000081525060200191505060405180910390fd5b828054600181600116156101000203166002900490600052602060002090601f016020900481019282601f10610d9757805160ff1916838001178555610dc5565b82800160010185558215610dc5579182015b82811115610dc4578251825591602001919060010190610da9565b5b509050610dd29190610e9e565b5090565b828054600181600116156101000203166002900490600052602060002090601f016020900481019282601f10610e1757805160ff1916838001178555610e45565b82800160010185558215610e45579182015b82811115610e44578251825591602001919060010190610e29565b5b509050610e529190610e9e565b5090565b50805460018160011615610100020316600290046000825580601f10610e7c5750610e9b565b601f016020900490600052602060002090810190610e9a9190610e9e565b5b50565b610ec091905b80821115610ebc576000816000905550600101610ea4565b5090565b9056fea265627a7a723158204bbe09bc682524624d825907b3e33e20da2c938d428ad147a02a6b226baaa70d64736f6c63430005100032",
  "source": "// SPDX-License-Identifier: MIT\npragma solidity >=0.4.21 <8.10.0;\n\ncontract PublishContent {\n    struct User {\n        uint id; // identification used for quick searching\\\n        string name; // e.g. author's name\n        //string[] text; // e.g. blogpost, all posts by this particular user\n        string text; // a single post associated with a user\n        //uint postAmount; // num of posts user has\n    }\n    //string[] public allTexts; // will start at index 0, this array will contain all posts that exist \n    User[] public users;\n    uint public nextId = 1; // so many issues with nextId being 0, therefore starting index is 1\n\n    // create new User as well as their first blog post\n    function create(string memory _name, string memory _text) public {\n        //allTexts.push(_text);\n        users.push(User(nextId, _name, _text));\n        nextId++;\n    }\n\n    // publish a new blog post (for an existing User)\n    // if user does not exist, it will give userError() but cause error, needs fixing\n    function publish(uint _id, string memory _text) public mustBeUser(_id) {\n        users[_id-1].text = _text;\n        //allTexts.push(_text);\n        //users[_id-1].text = allTexts;\n        //users[_id-1].postAmount++;\n    }\n\n    // basically deletes any post specified in postNum by setting the string to \"\" the empty string\n    // function removePublish(uint _id, uint postNum) public mustBeUser(_id) { \n    //     delete users[_id-1].text[postNum];\n    // }\n\n    function readName(uint _id) view public returns(string memory) {\n        require(_id != 0, \"User does not exist\"); // instead of require, so there aren't warnings\n        if (searchUser(_id)) return(users[_id-1].name); // _id - 1 is actually necessary...\n        userError();\n    }\n\n    function readText(uint _id) view public returns(string memory) { //, uint postNum) view public returns(string memory) { // post 0 -> infinity\n        require(_id != 0, \"User does not exist\"); // instead of require, so there aren't warnings\n        if (searchUser(_id)) {\n            //return(users[_id-1].text[postNum]); // _id - 1 is actually necessary...  \n            return(users[_id-1].text);\n        }\n        userError();\n    }\n\n    // be very careful when deleting users, because even with mustBeUser, it will cost money, just how solidity works\n    function del(uint _id) public mustBeUser(_id) { // del user, will del the user and make the index unusable, *BAD IMPLEMENTATION*\n        delete users[_id-1];\n    }\n\n    // internal, call just inside this contract, since view, it will not be on the blockchain view -> read-only function\n    function binarySearch(uint _id, uint start, uint end) view internal returns(bool) {\n        if (start > end) return false;\n        uint mid = end - start / 2;\n        uint userID = users[mid].id;\n        if (userID == _id) return true;\n        if (userID > _id) return binarySearch(_id, start, end-1);\n        else return binarySearch(_id, mid+1, end);\n    }\n\n    function searchUser(uint _id) view public returns(bool) {\n        return binarySearch(_id, 0, users.length-1);\n    }\n\n    function isStrEmpty(uint _id) view internal returns(bool) {\n        return keccak256(abi.encodePacked(users[_id].name)) == keccak256(abi.encodePacked(\"\"));\n    }\n\n    // since pure it will not be on blockchain pure -> do not read or modify the state variables\n    function userError() pure internal {\n        revert(\"User does not exist\");\n    }\n\n    modifier mustBeUser(uint _id) {\n        require(searchUser(_id) == true && _id != 0, \"User does not exist\");\n        _;\n    }\n\n    function getNextId() public view returns (uint) {\n        return nextId;\n    }\n\n\n}\n",
  "sourcePath": "/Users/alicedoherty/Development/SWENG-project-2022/contracts/PublishContent.sol",
  "compiler": {
    "name": "solc",
    "version": "0.5.16+commit.9c3226ce.Emscripten.clang"
  },
  "schemaVersion": "3.4.5",
  "updatedAt": "2022-03-03T10:55:00.021Z",
  "networkType": "ethereum",
  "devdoc": {
    "methods": {}
  },
  "userdoc": {
    "methods": {}
  }
}