{
  "contractName": "PublishContent",
  "abi": [
    {
      "constant": true,
      "inputs": [],
      "name": "nextId",
      "outputs": [
        {
          "internalType": "uint256",
          "name": "",
          "type": "uint256"
        }
      ],
      "payable": false,
      "stateMutability": "view",
      "type": "function"
    },
    {
      "constant": true,
      "inputs": [
        {
          "internalType": "uint256",
          "name": "",
          "type": "uint256"
        }
      ],
      "name": "users",
      "outputs": [
        {
          "internalType": "uint256",
          "name": "id",
          "type": "uint256"
        },
        {
          "internalType": "string",
          "name": "name",
          "type": "string"
        },
        {
          "internalType": "string",
          "name": "text",
          "type": "string"
        }
      ],
      "payable": false,
      "stateMutability": "view",
      "type": "function"
    },
    {
      "constant": false,
      "inputs": [
        {
          "internalType": "string",
          "name": "_name",
          "type": "string"
        },
        {
          "internalType": "string",
          "name": "_text",
          "type": "string"
        }
      ],
      "name": "create",
      "outputs": [],
      "payable": false,
      "stateMutability": "nonpayable",
      "type": "function"
    },
    {
      "constant": false,
      "inputs": [
        {
          "internalType": "uint256",
          "name": "_id",
          "type": "uint256"
        },
        {
          "internalType": "string",
          "name": "_text",
          "type": "string"
        }
      ],
      "name": "publish",
      "outputs": [],
      "payable": false,
      "stateMutability": "nonpayable",
      "type": "function"
    },
    {
      "constant": true,
      "inputs": [
        {
          "internalType": "uint256",
          "name": "_id",
          "type": "uint256"
        }
      ],
      "name": "readName",
      "outputs": [
        {
          "internalType": "string",
          "name": "",
          "type": "string"
        }
      ],
      "payable": false,
      "stateMutability": "view",
      "type": "function"
    },
    {
      "constant": true,
      "inputs": [
        {
          "internalType": "uint256",
          "name": "_id",
          "type": "uint256"
        }
      ],
      "name": "readText",
      "outputs": [
        {
          "internalType": "string",
          "name": "",
          "type": "string"
        }
      ],
      "payable": false,
      "stateMutability": "view",
      "type": "function"
    },
    {
      "constant": false,
      "inputs": [
        {
          "internalType": "uint256",
          "name": "_id",
          "type": "uint256"
        }
      ],
      "name": "del",
      "outputs": [],
      "payable": false,
      "stateMutability": "nonpayable",
      "type": "function"
    },
    {
      "constant": true,
      "inputs": [
        {
          "internalType": "uint256",
          "name": "_id",
          "type": "uint256"
        }
      ],
      "name": "searchUser",
      "outputs": [
        {
          "internalType": "bool",
          "name": "",
          "type": "bool"
        }
      ],
      "payable": false,
      "stateMutability": "view",
      "type": "function"
    }
  ],
  "bytecode": "0x60806040526001805534801561001457600080fd5b50610ec5806100246000396000f3fe608060405234801561001057600080fd5b50600436106100885760003560e01c80635d20779d1161005b5780635d20779d146103ec57806361b8ce8c1461043257806378f386b114610450578063ae1dfdf6146104f757610088565b80630560c7a81461008d578063198e2b8a14610152578063365b98b2146102a457806357771a23146103be575b600080fd5b610150600480360360408110156100a357600080fd5b8101908080359060200190929190803590602001906401000000008111156100ca57600080fd5b8201836020820111156100dc57600080fd5b803590602001918460018302840111640100000000831117156100fe57600080fd5b91908080601f016020809104026020016040519081016040528093929190818152602001838380828437600081840152601f19601f82011690508083019250505050505050919291929050505061059e565b005b6102a26004803603604081101561016857600080fd5b810190808035906020019064010000000081111561018557600080fd5b82018360208201111561019757600080fd5b803590602001918460018302840111640100000000831117156101b957600080fd5b91908080601f016020809104026020016040519081016040528093929190818152602001838380828437600081840152601f19601f8201169050808301925050505050505091929192908035906020019064010000000081111561021c57600080fd5b82018360208201111561022e57600080fd5b8035906020019184600183028401116401000000008311171561025057600080fd5b91908080601f016020809104026020016040519081016040528093929190818152602001838380828437600081840152601f19601f820116905080830192505050505050509192919290505050610669565b005b6102d0600480360360208110156102ba57600080fd5b8101908080359060200190929190505050610710565b604051808481526020018060200180602001838103835285818151815260200191508051906020019080838360005b8381101561031a5780820151818401526020810190506102ff565b50505050905090810190601f1680156103475780820380516001836020036101000a031916815260200191505b50838103825284818151815260200191508051906020019080838360005b83811015610380578082015181840152602081019050610365565b50505050905090810190601f1680156103ad5780820380516001836020036101000a031916815260200191505b509550505050505060405180910390f35b6103ea600480360360208110156103d457600080fd5b8101908080359060200190929190505050610877565b005b6104186004803603602081101561040257600080fd5b8101908080359060200190929190505050610954565b604051808215151515815260200191505060405180910390f35b61043a610971565b6040518082815260200191505060405180910390f35b61047c6004803603602081101561046657600080fd5b8101908080359060200190929190505050610977565b6040518080602001828103825283818151815260200191508051906020019080838360005b838110156104bc5780820151818401526020810190506104a1565b50505050905090810190601f1680156104e95780820380516001836020036101000a031916815260200191505b509250505060405180910390f35b6105236004803603602081101561050d57600080fd5b8101908080359060200190929190505050610acd565b6040518080602001828103825283818151815260200191508051906020019080838360005b83811015610563578082015181840152602081019050610548565b50505050905090810190601f1680156105905780820380516001836020036101000a031916815260200191505b509250505060405180910390f35b81600115156105ac82610954565b15151480156105bc575060008114155b61062e576040517f08c379a00000000000000000000000000000000000000000000000000000000081526004018080602001828103825260138152602001807f5573657220646f6573206e6f742065786973740000000000000000000000000081525060200191505060405180910390fd5b816000600185038154811061063f57fe5b90600052602060002090600302016002019080519060200190610663929190610d23565b50505050565b60006040518060600160405280600154815260200184815260200183815250908060018154018082558091505090600182039060005260206000209060030201600090919290919091506000820151816000015560208201518160010190805190602001906106d9929190610da3565b5060408201518160020190805190602001906106f6929190610da3565b505050506001600081548092919060010191905055505050565b6000818154811061071d57fe5b9060005260206000209060030201600091509050806000015490806001018054600181600116156101000203166002900480601f0160208091040260200160405190810160405280929190818152602001828054600181600116156101000203166002900480156107cf5780601f106107a4576101008083540402835291602001916107cf565b820191906000526020600020905b8154815290600101906020018083116107b257829003601f168201915b505050505090806002018054600181600116156101000203166002900480601f01602080910402602001604051908101604052809291908181526020018280546001816001161561010002031660029004801561086d5780601f106108425761010080835404028352916020019161086d565b820191906000526020600020905b81548152906001019060200180831161085057829003601f168201915b5050505050905083565b806001151561088582610954565b1515148015610895575060008114155b610907576040517f08c379a00000000000000000000000000000000000000000000000000000000081526004018080602001828103825260138152602001807f5573657220646f6573206e6f742065786973740000000000000000000000000081525060200191505060405180910390fd5b6000600183038154811061091757fe5b906000526020600020906003020160008082016000905560018201600061093e9190610e23565b60028201600061094e9190610e23565b50505050565b600061096a826000600160008054905003610c23565b9050919050565b60015481565b606060008214156109f0576040517f08c379a00000000000000000000000000000000000000000000000000000000081526004018080602001828103825260138152602001807f5573657220646f6573206e6f742065786973740000000000000000000000000081525060200191505060405180910390fd5b6109f982610954565b15610abf5760006001830381548110610a0e57fe5b90600052602060002090600302016002018054600181600116156101000203166002900480601f016020809104026020016040519081016040528092919081815260200182805460018160011615610100020316600290048015610ab35780601f10610a8857610100808354040283529160200191610ab3565b820191906000526020600020905b815481529060010190602001808311610a9657829003601f168201915b50505050509050610ac8565b610ac7610cb5565b5b919050565b60606000821415610b46576040517f08c379a00000000000000000000000000000000000000000000000000000000081526004018080602001828103825260138152602001807f5573657220646f6573206e6f742065786973740000000000000000000000000081525060200191505060405180910390fd5b610b4f82610954565b15610c155760006001830381548110610b6457fe5b90600052602060002090600302016001018054600181600116156101000203166002900480601f016020809104026020016040519081016040528092919081815260200182805460018160011615610100020316600290048015610c095780601f10610bde57610100808354040283529160200191610c09565b820191906000526020600020905b815481529060010190602001808311610bec57829003601f168201915b50505050509050610c1e565b610c1d610cb5565b5b919050565b600081831115610c365760009050610cae565b600060028481610c4257fe5b04830390506000808281548110610c5557fe5b906000526020600020906003020160000154905085811415610c7c57600192505050610cae565b85811115610c9b57610c92868660018703610c23565b92505050610cae565b610ca9866001840186610c23565b925050505b9392505050565b6040517f08c379a00000000000000000000000000000000000000000000000000000000081526004018080602001828103825260138152602001807f5573657220646f6573206e6f742065786973740000000000000000000000000081525060200191505060405180910390fd5b828054600181600116156101000203166002900490600052602060002090601f016020900481019282601f10610d6457805160ff1916838001178555610d92565b82800160010185558215610d92579182015b82811115610d91578251825591602001919060010190610d76565b5b509050610d9f9190610e6b565b5090565b828054600181600116156101000203166002900490600052602060002090601f016020900481019282601f10610de457805160ff1916838001178555610e12565b82800160010185558215610e12579182015b82811115610e11578251825591602001919060010190610df6565b5b509050610e1f9190610e6b565b5090565b50805460018160011615610100020316600290046000825580601f10610e495750610e68565b601f016020900490600052602060002090810190610e679190610e6b565b5b50565b610e8d91905b80821115610e89576000816000905550600101610e71565b5090565b9056fea265627a7a72315820749cc6480abd03f529a6f2737f1d019bbaa07705bb045235ac1d0e0edbd9935864736f6c63430005100032",
  "source": "// SPDX-License-Identifier: MIT\npragma solidity >=0.4.21 <8.10.0;\n\ncontract PublishContent {\n\n    struct User {\n        uint id; // identification used for quick searching\\\n        string name; // e.g. author's name\n        string text; // e.g. blogpost\n    }\n    User[] public users;\n    uint public nextId = 1; // so many issues with nextId being 0, therefore starting index is 1\n\n    function create(string memory _name, string memory _text) public {\n        users.push(User(nextId, _name, _text));\n        nextId++;\n    }\n\n    // change text e.g. blogpost (modify text)\n    // if user does not exist, it will give userError() but cause error, needs fixing\n    function publish(uint _id, string memory _text) public mustBeUser(_id) {\n        users[_id-1].text = _text;\n    }\n\n    function readName(uint _id) view public returns(string memory) {\n        require(_id != 0, \"User does not exist\"); // instead of require, so there aren't warnings\n        if (searchUser(_id)) return(users[_id-1].name); // _id - 1 is actually necessary...\n        userError();\n    }\n    function readText(uint _id) view public returns(string memory) {\n        require(_id != 0, \"User does not exist\"); // instead of require, so there aren't warnings\n        if (searchUser(_id)) return(users[_id-1].text); // _id - 1 is actually necessary...\n        userError();\n    }\n    // be very careful when deleting users, because even with mustBeUser, it will cost money, just how solidity works\n    function del(uint _id) public mustBeUser(_id) { // del user, will del the user and make the index unusable, *BAD IMPLEMENTATION*\n        delete users[_id-1];\n    }\n\n    // internal, call just inside this contract, since view, it will not be on the blockchain view -> read-only function\n    function binarySearch(uint _id, uint start, uint end) view internal returns(bool) {\n        if (start > end) return false;\n        uint mid = end - start / 2;\n        uint userID = users[mid].id;\n        if (userID == _id) return true;\n        if (userID > _id) return binarySearch(_id, start, end-1);\n        else return binarySearch(_id, mid+1, end);\n    }\n    function searchUser(uint _id) view public returns(bool) {\n        return binarySearch(_id, 0, users.length-1);\n    }\n\n    function isStrEmpty(uint _id) view internal returns(bool) {\n        return keccak256(abi.encodePacked(users[_id].name)) == keccak256(abi.encodePacked(\"\"));\n    }\n\n\t// since pure it will not be on blockchain pure -> do not read or modify the state variables\n    function userError() pure internal {\n        revert(\"User does not exist\");\n    }\n\n    modifier mustBeUser(uint _id) {\n        require(searchUser(_id) == true && _id != 0, \"User does not exist\");\n        _;\n    }\n\n}\n",
  "sourcePath": "/Users/alicedoherty/Development/SWENG-project-2022/contracts/PublishContent.sol",
  "compiler": {
    "name": "solc",
    "version": "0.5.16+commit.9c3226ce.Emscripten.clang"
  },
  "schemaVersion": "3.4.5",
  "updatedAt": "2022-03-02T10:38:19.260Z",
  "networkType": "ethereum",
  "devdoc": {
    "methods": {}
  },
  "userdoc": {
    "methods": {}
  }
}