{
  "contractName": "PublishContent",
  "abi": [
    {
      "constant": true,
      "inputs": [],
      "name": "nextId",
      "outputs": [
        {
          "internalType": "uint256",
          "name": "",
          "type": "uint256"
        }
      ],
      "payable": false,
      "stateMutability": "view",
      "type": "function"
    },
    {
      "constant": true,
      "inputs": [],
      "name": "nextPostId",
      "outputs": [
        {
          "internalType": "uint256",
          "name": "",
          "type": "uint256"
        }
      ],
      "payable": false,
      "stateMutability": "view",
      "type": "function"
    },
    {
      "constant": true,
      "inputs": [],
      "name": "nextpostVersionid",
      "outputs": [
        {
          "internalType": "uint256",
          "name": "",
          "type": "uint256"
        }
      ],
      "payable": false,
      "stateMutability": "view",
      "type": "function"
    },
    {
      "constant": true,
      "inputs": [
        {
          "internalType": "uint256",
          "name": "",
          "type": "uint256"
        }
      ],
      "name": "postVersions",
      "outputs": [
        {
          "internalType": "uint256",
          "name": "postVersionid",
          "type": "uint256"
        },
        {
          "internalType": "string",
          "name": "author",
          "type": "string"
        },
        {
          "internalType": "string",
          "name": "postTitle",
          "type": "string"
        },
        {
          "internalType": "string",
          "name": "postText",
          "type": "string"
        },
        {
          "internalType": "string",
          "name": "date",
          "type": "string"
        }
      ],
      "payable": false,
      "stateMutability": "view",
      "type": "function"
    },
    {
      "constant": true,
      "inputs": [
        {
          "internalType": "uint256",
          "name": "",
          "type": "uint256"
        }
      ],
      "name": "posts",
      "outputs": [
        {
          "internalType": "string",
          "name": "postTitle",
          "type": "string"
        },
        {
          "internalType": "uint256",
          "name": "postId",
          "type": "uint256"
        }
      ],
      "payable": false,
      "stateMutability": "view",
      "type": "function"
    },
    {
      "constant": true,
      "inputs": [
        {
          "internalType": "uint256",
          "name": "",
          "type": "uint256"
        }
      ],
      "name": "users",
      "outputs": [
        {
          "internalType": "uint256",
          "name": "id",
          "type": "uint256"
        },
        {
          "internalType": "string",
          "name": "name",
          "type": "string"
        }
      ],
      "payable": false,
      "stateMutability": "view",
      "type": "function"
    },
    {
      "constant": false,
      "inputs": [
        {
          "internalType": "string",
          "name": "postTitle",
          "type": "string"
        },
        {
          "internalType": "string",
          "name": "author",
          "type": "string"
        },
        {
          "internalType": "string",
          "name": "postText",
          "type": "string"
        },
        {
          "internalType": "string",
          "name": "date",
          "type": "string"
        },
        {
          "internalType": "uint256[]",
          "name": "postVersionId",
          "type": "uint256[]"
        }
      ],
      "name": "createPost",
      "outputs": [],
      "payable": false,
      "stateMutability": "nonpayable",
      "type": "function"
    },
    {
      "constant": false,
      "inputs": [
        {
          "internalType": "string",
          "name": "author",
          "type": "string"
        },
        {
          "internalType": "string",
          "name": "postTitle",
          "type": "string"
        },
        {
          "internalType": "string",
          "name": "postText",
          "type": "string"
        },
        {
          "internalType": "string",
          "name": "date",
          "type": "string"
        }
      ],
      "name": "editPost",
      "outputs": [],
      "payable": false,
      "stateMutability": "nonpayable",
      "type": "function"
    },
    {
      "constant": false,
      "inputs": [
        {
          "internalType": "string",
          "name": "_name",
          "type": "string"
        },
        {
          "internalType": "uint256[]",
          "name": "postIds",
          "type": "uint256[]"
        }
      ],
      "name": "create",
      "outputs": [],
      "payable": false,
      "stateMutability": "nonpayable",
      "type": "function"
    },
    {
      "constant": false,
      "inputs": [
        {
          "internalType": "uint256",
          "name": "_id",
          "type": "uint256"
        },
        {
          "internalType": "uint256[]",
          "name": "arrayId",
          "type": "uint256[]"
        }
      ],
      "name": "pushPostToUser",
      "outputs": [],
      "payable": false,
      "stateMutability": "nonpayable",
      "type": "function"
    },
    {
      "constant": false,
      "inputs": [
        {
          "internalType": "uint256",
          "name": "_id",
          "type": "uint256"
        },
        {
          "internalType": "string",
          "name": "_postTitle",
          "type": "string"
        }
      ],
      "name": "renamePostTitle",
      "outputs": [],
      "payable": false,
      "stateMutability": "nonpayable",
      "type": "function"
    },
    {
      "constant": false,
      "inputs": [
        {
          "internalType": "uint256",
          "name": "_id",
          "type": "uint256"
        }
      ],
      "name": "removePublish",
      "outputs": [],
      "payable": false,
      "stateMutability": "nonpayable",
      "type": "function"
    },
    {
      "constant": true,
      "inputs": [
        {
          "internalType": "uint256",
          "name": "_id",
          "type": "uint256"
        }
      ],
      "name": "readName",
      "outputs": [
        {
          "internalType": "string",
          "name": "",
          "type": "string"
        }
      ],
      "payable": false,
      "stateMutability": "view",
      "type": "function"
    },
    {
      "constant": true,
      "inputs": [
        {
          "internalType": "uint256",
          "name": "_id",
          "type": "uint256"
        }
      ],
      "name": "readPostsIdsOfUser",
      "outputs": [
        {
          "internalType": "uint256[]",
          "name": "",
          "type": "uint256[]"
        }
      ],
      "payable": false,
      "stateMutability": "view",
      "type": "function"
    },
    {
      "constant": true,
      "inputs": [
        {
          "internalType": "uint256",
          "name": "_id",
          "type": "uint256"
        }
      ],
      "name": "readPostsfromPostVersions",
      "outputs": [
        {
          "internalType": "uint256[]",
          "name": "",
          "type": "uint256[]"
        }
      ],
      "payable": false,
      "stateMutability": "view",
      "type": "function"
    },
    {
      "constant": true,
      "inputs": [
        {
          "internalType": "uint256",
          "name": "_id",
          "type": "uint256"
        }
      ],
      "name": "readVersionPostVersionid",
      "outputs": [
        {
          "internalType": "uint256",
          "name": "",
          "type": "uint256"
        }
      ],
      "payable": false,
      "stateMutability": "view",
      "type": "function"
    },
    {
      "constant": true,
      "inputs": [
        {
          "internalType": "uint256",
          "name": "_id",
          "type": "uint256"
        }
      ],
      "name": "readVersionPostTitle",
      "outputs": [
        {
          "internalType": "string",
          "name": "",
          "type": "string"
        }
      ],
      "payable": false,
      "stateMutability": "view",
      "type": "function"
    },
    {
      "constant": true,
      "inputs": [
        {
          "internalType": "uint256",
          "name": "_id",
          "type": "uint256"
        }
      ],
      "name": "readVersionPostText",
      "outputs": [
        {
          "internalType": "string",
          "name": "",
          "type": "string"
        }
      ],
      "payable": false,
      "stateMutability": "view",
      "type": "function"
    },
    {
      "constant": true,
      "inputs": [
        {
          "internalType": "uint256",
          "name": "_id",
          "type": "uint256"
        }
      ],
      "name": "readVerisonDate",
      "outputs": [
        {
          "internalType": "string",
          "name": "",
          "type": "string"
        }
      ],
      "payable": false,
      "stateMutability": "view",
      "type": "function"
    },
    {
      "constant": true,
      "inputs": [
        {
          "internalType": "uint256",
          "name": "_id",
          "type": "uint256"
        }
      ],
      "name": "readVerisonAuthor",
      "outputs": [
        {
          "internalType": "string",
          "name": "",
          "type": "string"
        }
      ],
      "payable": false,
      "stateMutability": "view",
      "type": "function"
    },
    {
      "constant": true,
      "inputs": [
        {
          "internalType": "uint256",
          "name": "_id",
          "type": "uint256"
        }
      ],
      "name": "readPostTitle",
      "outputs": [
        {
          "internalType": "string",
          "name": "",
          "type": "string"
        }
      ],
      "payable": false,
      "stateMutability": "view",
      "type": "function"
    },
    {
      "constant": false,
      "inputs": [
        {
          "internalType": "uint256",
          "name": "_id",
          "type": "uint256"
        }
      ],
      "name": "del",
      "outputs": [],
      "payable": false,
      "stateMutability": "nonpayable",
      "type": "function"
    },
    {
      "constant": true,
      "inputs": [
        {
          "internalType": "uint256",
          "name": "_id",
          "type": "uint256"
        }
      ],
      "name": "searchUser",
      "outputs": [
        {
          "internalType": "bool",
          "name": "",
          "type": "bool"
        }
      ],
      "payable": false,
      "stateMutability": "view",
      "type": "function"
    },
    {
      "constant": true,
      "inputs": [],
      "name": "getNextId",
      "outputs": [
        {
          "internalType": "uint256",
          "name": "",
          "type": "uint256"
        }
      ],
      "payable": false,
      "stateMutability": "view",
      "type": "function"
    }
  ],
  "bytecode": "0x608060405260006003556000600455600060055534801561001f57600080fd5b50611fa28061002f6000396000f3fe608060405234801561001057600080fd5b50600436106101585760003560e01c80635d20779d116100c3578063992eee7e1161007c578063992eee7e146104295780639c23d48e14610459578063ae1dfdf614610489578063b7049e5e146104b9578063bc968326146104d5578063c9054380146104f357610158565b80635d20779d1461034357806361b8ce8c146103735780636791079a14610391578063863a20f2146103ad578063929c2e75146103dd5780639405d9ac146103f957610158565b8063365b98b211610115578063365b98b21461025c5780633baaae671461028d5780633efcde80146102a957806350f1546c146102d957806357771a23146103095780635c09bd981461032557610158565b806307f6addd1461015d5780630b1e7f831461018d578063144ce929146101be5780631ac7f4ea146101da5780631da9d181146101f857806325a1fbf11461022c575b600080fd5b61017760048036036101729190810190611a6f565b61050f565b6040516101849190611d44565b60405180910390f35b6101a760048036036101a29190810190611a6f565b610537565b6040516101b5929190611cf4565b60405180910390f35b6101d860048036036101d39190810190611a6f565b610600565b005b6101e26106a7565b6040516101ef9190611d44565b60405180910390f35b610212600480360361020d9190810190611a6f565b6106ad565b604051610223959493929190611d8f565b60405180910390f35b61024660048036036102419190810190611a6f565b610950565b6040516102539190611cd2565b60405180910390f35b61027660048036036102719190810190611a6f565b610a10565b604051610284929190611d5f565b60405180910390f35b6102a760048036036102a29190810190611aec565b610ad9565b005b6102c360048036036102be9190810190611a6f565b610b6e565b6040516102d09190611c95565b60405180910390f35b6102f360048036036102ee9190810190611a6f565b610be4565b6040516103009190611cd2565b60405180910390f35b610323600480360361031e9190810190611a6f565b610ca4565b005b61032d610d4b565b60405161033a9190611d44565b60405180910390f35b61035d60048036036103589190810190611a6f565b610d51565b60405161036a9190611cb7565b60405180910390f35b61037b610d6d565b6040516103889190611d44565b60405180910390f35b6103ab60048036036103a691908101906118bd565b610d73565b005b6103c760048036036103c29190810190611a6f565b610e62565b6040516103d49190611cd2565b60405180910390f35b6103f760048036036103f29190810190611851565b610f22565b005b610413600480360361040e9190810190611a6f565b610fc9565b6040516104209190611c95565b60405180910390f35b610443600480360361043e9190810190611a6f565b61103f565b6040516104509190611cd2565b60405180910390f35b610473600480360361046e9190810190611a6f565b6110ff565b6040516104809190611cd2565b60405180910390f35b6104a3600480360361049e9190810190611a6f565b6111bf565b6040516104b09190611cd2565b60405180910390f35b6104d360048036036104ce9190810190611a98565b61129b565b005b6104dd6112d2565b6040516104ea9190611d44565b60405180910390f35b61050d60048036036105089190810190611980565b6112dc565b005b60006002828154811061051e57fe5b9060005260206000209060050201600001549050919050565b6000818154811061054457fe5b9060005260206000209060030201600091509050806000018054600181600116156101000203166002900480601f0160208091040260200160405190810160405280929190818152602001828054600181600116156101000203166002900480156105f05780601f106105c5576101008083540402835291602001916105f0565b820191906000526020600020905b8154815290600101906020018083116105d357829003601f168201915b5050505050908060010154905082565b806001151561060e82610d51565b151514801561061e575060008114155b61065d576040517f08c379a000000000000000000000000000000000000000000000000000000000815260040161065490611d24565b60405180910390fd5b6001828154811061066a57fe5b9060005260206000209060030201600080820160009055600182016000610691919061153d565b6002820160006106a19190611585565b50505050565b60055481565b600281815481106106ba57fe5b9060005260206000209060050201600091509050806000015490806001018054600181600116156101000203166002900480601f01602080910402602001604051908101604052809291908181526020018280546001816001161561010002031660029004801561076c5780601f106107415761010080835404028352916020019161076c565b820191906000526020600020905b81548152906001019060200180831161074f57829003601f168201915b505050505090806002018054600181600116156101000203166002900480601f01602080910402602001604051908101604052809291908181526020018280546001816001161561010002031660029004801561080a5780601f106107df5761010080835404028352916020019161080a565b820191906000526020600020905b8154815290600101906020018083116107ed57829003601f168201915b505050505090806003018054600181600116156101000203166002900480601f0160208091040260200160405190810160405280929190818152602001828054600181600116156101000203166002900480156108a85780601f1061087d576101008083540402835291602001916108a8565b820191906000526020600020905b81548152906001019060200180831161088b57829003601f168201915b505050505090806004018054600181600116156101000203166002900480601f0160208091040260200160405190810160405280929190818152602001828054600181600116156101000203166002900480156109465780601f1061091b57610100808354040283529160200191610946565b820191906000526020600020905b81548152906001019060200180831161092957829003601f168201915b5050505050905085565b60606002828154811061095f57fe5b90600052602060002090600502016002018054600181600116156101000203166002900480601f016020809104026020016040519081016040528092919081815260200182805460018160011615610100020316600290048015610a045780601f106109d957610100808354040283529160200191610a04565b820191906000526020600020905b8154815290600101906020018083116109e757829003601f168201915b50505050509050919050565b60018181548110610a1d57fe5b9060005260206000209060030201600091509050806000015490806001018054600181600116156101000203166002900480601f016020809104026020016040519081016040528092919081815260200182805460018160011615610100020316600290048015610acf5780601f10610aa457610100808354040283529160200191610acf565b820191906000526020600020905b815481529060010190602001808311610ab257829003601f168201915b5050505050905082565b8160011515610ae782610d51565b1515148015610af7575060008114155b610b36576040517f08c379a0000000000000000000000000000000000000000000000000000000008152600401610b2d90611d24565b60405180910390fd5b8160008481548110610b4457fe5b90600052602060002090600302016000019080519060200190610b689291906115a6565b50505050565b606060008281548110610b7d57fe5b9060005260206000209060030201600201805480602002602001604051908101604052809291908181526020018280548015610bd857602002820191906000526020600020905b815481526020019060010190808311610bc4575b50505050509050919050565b606060028281548110610bf357fe5b90600052602060002090600502016003018054600181600116156101000203166002900480601f016020809104026020016040519081016040528092919081815260200182805460018160011615610100020316600290048015610c985780601f10610c6d57610100808354040283529160200191610c98565b820191906000526020600020905b815481529060010190602001808311610c7b57829003601f168201915b50505050509050919050565b8060011515610cb282610d51565b1515148015610cc2575060008114155b610d01576040517f08c379a0000000000000000000000000000000000000000000000000000000008152600401610cf890611d24565b60405180910390fd5b60018281548110610d0e57fe5b9060005260206000209060030201600080820160009055600182016000610d35919061153d565b600282016000610d459190611585565b50505050565b60045481565b6000610d66826000600180805490500361146f565b9050919050565b60035481565b60026040518060a0016040528060055481526020018681526020018581526020018481526020018381525090806001815401808255809150509060018203906000526020600020906005020160009091929091909150600082015181600001556020820151816001019080519060200190610def929190611626565b506040820151816002019080519060200190610e0c929190611626565b506060820151816003019080519060200190610e29929190611626565b506080820151816004019080519060200190610e46929190611626565b5050505060056000815480929190600101919050555050505050565b606060008281548110610e7157fe5b90600052602060002090600302016000018054600181600116156101000203166002900480601f016020809104026020016040519081016040528092919081815260200182805460018160011615610100020316600290048015610f165780601f10610eeb57610100808354040283529160200191610f16565b820191906000526020600020905b815481529060010190602001808311610ef957829003601f168201915b50505050509050919050565b6001604051806060016040528060035481526020018481526020018381525090806001815401808255809150509060018203906000526020600020906003020160009091929091909150600082015181600001556020820151816001019080519060200190610f92929190611626565b506040820151816002019080519060200190610faf9291906116a6565b505050506003600081548092919060010191905055505050565b606060018281548110610fd857fe5b906000526020600020906003020160020180548060200260200160405190810160405280929190818152602001828054801561103357602002820191906000526020600020905b81548152602001906001019080831161101f575b50505050509050919050565b60606002828154811061104e57fe5b90600052602060002090600502016001018054600181600116156101000203166002900480601f0160208091040260200160405190810160405280929190818152602001828054600181600116156101000203166002900480156110f35780601f106110c8576101008083540402835291602001916110f3565b820191906000526020600020905b8154815290600101906020018083116110d657829003601f168201915b50505050509050919050565b60606002828154811061110e57fe5b90600052602060002090600502016004018054600181600116156101000203166002900480601f0160208091040260200160405190810160405280929190818152602001828054600181600116156101000203166002900480156111b35780601f10611188576101008083540402835291602001916111b3565b820191906000526020600020905b81548152906001019060200180831161119657829003601f168201915b50505050509050919050565b60606111ca82610d51565b1561128d57600182815481106111dc57fe5b90600052602060002090600302016001018054600181600116156101000203166002900480601f0160208091040260200160405190810160405280929190818152602001828054600181600116156101000203166002900480156112815780601f1061125657610100808354040283529160200191611281565b820191906000526020600020905b81548152906001019060200180831161126457829003601f168201915b50505050509050611296565b611295611502565b5b919050565b80600183815481106112a957fe5b906000526020600020906003020160020190805190602001906112cd9291906116f3565b505050565b6000600354905090565b60026040518060a0016040528060055481526020018681526020018781526020018581526020018481525090806001815401808255809150509060018203906000526020600020906005020160009091929091909150600082015181600001556020820151816001019080519060200190611358929190611626565b506040820151816002019080519060200190611375929190611626565b506060820151816003019080519060200190611392929190611626565b5060808201518160040190805190602001906113af929190611626565b5050505060006040518060600160405280878152602001600454815260200183815250908060018154018082558091505090600182039060005260206000209060030201600090919290919091506000820151816000019080519060200190611419929190611626565b506020820151816001015560408201518160020190805190602001906114409291906116a6565b505050506004600081548092919060010191905055506005600081548092919060010191905055505050505050565b60008183111561148257600090506114fb565b60006002848161148e57fe5b04830390506000600182815481106114a257fe5b9060005260206000209060030201600001549050858114156114c9576001925050506114fb565b858111156114e8576114df86866001870361146f565b925050506114fb565b6114f686600184018661146f565b925050505b9392505050565b6040517f08c379a000000000000000000000000000000000000000000000000000000000815260040161153490611d24565b60405180910390fd5b50805460018160011615610100020316600290046000825580601f106115635750611582565b601f0160209004906000526020600020908101906115819190611740565b5b50565b50805460008255906000526020600020908101906115a39190611740565b50565b828054600181600116156101000203166002900490600052602060002090601f016020900481019282601f106115e757805160ff1916838001178555611615565b82800160010185558215611615579182015b828111156116145782518255916020019190600101906115f9565b5b5090506116229190611740565b5090565b828054600181600116156101000203166002900490600052602060002090601f016020900481019282601f1061166757805160ff1916838001178555611695565b82800160010185558215611695579182015b82811115611694578251825591602001919060010190611679565b5b5090506116a29190611740565b5090565b8280548282559060005260206000209081019282156116e2579160200282015b828111156116e15782518255916020019190600101906116c6565b5b5090506116ef9190611740565b5090565b82805482825590600052602060002090810192821561172f579160200282015b8281111561172e578251825591602001919060010190611713565b5b50905061173c9190611740565b5090565b61176291905b8082111561175e576000816000905550600101611746565b5090565b90565b600082601f83011261177657600080fd5b813561178961178482611e2b565b611dfe565b915081818352602084019350602081019050838560208402820111156117ae57600080fd5b60005b838110156117de57816117c4888261183c565b8452602084019350602083019250506001810190506117b1565b5050505092915050565b600082601f8301126117f957600080fd5b813561180c61180782611e53565b611dfe565b9150808252602083016020830185838301111561182857600080fd5b611833838284611ef5565b50505092915050565b60008135905061184b81611f48565b92915050565b6000806040838503121561186457600080fd5b600083013567ffffffffffffffff81111561187e57600080fd5b61188a858286016117e8565b925050602083013567ffffffffffffffff8111156118a757600080fd5b6118b385828601611765565b9150509250929050565b600080600080608085870312156118d357600080fd5b600085013567ffffffffffffffff8111156118ed57600080fd5b6118f9878288016117e8565b945050602085013567ffffffffffffffff81111561191657600080fd5b611922878288016117e8565b935050604085013567ffffffffffffffff81111561193f57600080fd5b61194b878288016117e8565b925050606085013567ffffffffffffffff81111561196857600080fd5b611974878288016117e8565b91505092959194509250565b600080600080600060a0868803121561199857600080fd5b600086013567ffffffffffffffff8111156119b257600080fd5b6119be888289016117e8565b955050602086013567ffffffffffffffff8111156119db57600080fd5b6119e7888289016117e8565b945050604086013567ffffffffffffffff811115611a0457600080fd5b611a10888289016117e8565b935050606086013567ffffffffffffffff811115611a2d57600080fd5b611a39888289016117e8565b925050608086013567ffffffffffffffff811115611a5657600080fd5b611a6288828901611765565b9150509295509295909350565b600060208284031215611a8157600080fd5b6000611a8f8482850161183c565b91505092915050565b60008060408385031215611aab57600080fd5b6000611ab98582860161183c565b925050602083013567ffffffffffffffff811115611ad657600080fd5b611ae285828601611765565b9150509250929050565b60008060408385031215611aff57600080fd5b6000611b0d8582860161183c565b925050602083013567ffffffffffffffff811115611b2a57600080fd5b611b36858286016117e8565b9150509250929050565b6000611b4c8383611c77565b60208301905092915050565b6000611b6382611e8f565b611b6d8185611ebd565b9350611b7883611e7f565b8060005b83811015611ba9578151611b908882611b40565b9750611b9b83611eb0565b925050600181019050611b7c565b5085935050505092915050565b611bbf81611edf565b82525050565b6000611bd082611ea5565b611bda8185611ece565b9350611bea818560208601611f04565b611bf381611f37565b840191505092915050565b6000611c0982611e9a565b611c138185611ece565b9350611c23818560208601611f04565b611c2c81611f37565b840191505092915050565b6000611c44601383611ece565b91507f5573657220646f6573206e6f74206578697374000000000000000000000000006000830152602082019050919050565b611c8081611eeb565b82525050565b611c8f81611eeb565b82525050565b60006020820190508181036000830152611caf8184611b58565b905092915050565b6000602082019050611ccc6000830184611bb6565b92915050565b60006020820190508181036000830152611cec8184611bc5565b905092915050565b60006040820190508181036000830152611d0e8185611bfe565b9050611d1d6020830184611c86565b9392505050565b60006020820190508181036000830152611d3d81611c37565b9050919050565b6000602082019050611d596000830184611c86565b92915050565b6000604082019050611d746000830185611c86565b8181036020830152611d868184611bfe565b90509392505050565b600060a082019050611da46000830188611c86565b8181036020830152611db68187611bfe565b90508181036040830152611dca8186611bfe565b90508181036060830152611dde8185611bfe565b90508181036080830152611df28184611bfe565b90509695505050505050565b6000604051905081810181811067ffffffffffffffff82111715611e2157600080fd5b8060405250919050565b600067ffffffffffffffff821115611e4257600080fd5b602082029050602081019050919050565b600067ffffffffffffffff821115611e6a57600080fd5b601f19601f8301169050602081019050919050565b6000819050602082019050919050565b600081519050919050565b600081519050919050565b600081519050919050565b6000602082019050919050565b600082825260208201905092915050565b600082825260208201905092915050565b60008115159050919050565b6000819050919050565b82818337600083830152505050565b60005b83811015611f22578082015181840152602081019050611f07565b83811115611f31576000848401525b50505050565b6000601f19601f8301169050919050565b611f5181611eeb565b8114611f5c57600080fd5b5056fea365627a7a72315820b6902954c5e3444871551acbad75af462931131de761339c78c9131a3060ede56c6578706572696d656e74616cf564736f6c63430005100040",
  "source": "// SPDX-License-Identifier: MIT\npragma solidity >=0.4.21 <8.10.0;\npragma experimental ABIEncoderV2;\n\ncontract PublishContent {\n\n    //event createPost()\n\n    struct Posts {\n        string postTitle;\n        uint postId;\n        uint[] postVersions;\n    }\n\n    struct PostVersion {\n        uint postVersionid; // same as postId for Posts\n        string author;\n        string postTitle; // same as postTitle for Posts\n        string postText; \n        string date;\n    }\n\n     struct User {\n        uint id;            // identification used for quick searching\n        string name;        // e.g. author's name\n        uint[] postIds;     // post id's for all the posts the user owns\n    }\n\n    Posts[] public posts;   // all posts \n    User[] public users;\n    PostVersion[] public postVersions; // all versions of posts\n\n    uint public nextId = 0;\n    uint public nextPostId = 0;\n    uint public nextpostVersionid = 0;\n\n    function createPost(string memory postTitle, \n                        string memory author, \n                        string memory postText, string memory date, \n                        uint[] memory postVersionId) public {     \n        postVersions.push(PostVersion(nextpostVersionid, author, postTitle, postText, date));   \n        posts.push(Posts(postTitle, nextPostId, postVersionId));\n        nextPostId++;\n        nextpostVersionid++;\n    }\n    function editPost(string memory author,\n                      string memory postTitle, string memory postText,\n                      string memory date) public {\n        postVersions.push(PostVersion(nextpostVersionid, author, postTitle, postText, date));\n        nextpostVersionid++;\n    }\n\n    // creates new User and initialises postIds[] with postId of their first post\n    function create(string memory _name, uint[] memory postIds) public {\n        users.push(User(nextId, _name, postIds));\n        nextId++;\n    }\n\n    function pushPostToUser(uint _id, uint[] memory arrayId) public {\n        users[_id].postIds = arrayId;\n    }\n\n    function renamePostTitle(uint _id, string memory _postTitle) public mustBeUser(_id) {\n        posts[_id].postTitle = _postTitle;\n    }\n\n    // basically deletes any post given an id \n    function removePublish(uint _id) public mustBeUser(_id) { \n        delete users[_id];\n    }\n\n    function readName(uint _id) view public returns(string memory) {\n        if (searchUser(_id)) return(users[_id].name);\n        userError();\n    }\n\n    function readPostsIdsOfUser(uint _id) view public returns(uint[] memory) {\n        return(users[_id].postIds);\n    }\n\n    function readPostsfromPostVersions(uint _id) view public returns(uint[] memory) {\n        return(posts[_id].postVersions);\n    }\n\n    function readVersionPostVersionid(uint _id) view public returns(uint) {\n        return(postVersions[_id].postVersionid);\n    }\n\n    function readVersionPostTitle(uint _id) view public returns(string memory) {\n        return(postVersions[_id].postTitle);\n    }\n\n    function readVersionPostText(uint _id) view public returns(string memory) {\n        return(postVersions[_id].postText);\n    }\n\n    function readVerisonDate(uint _id) view public returns(string memory) {\n        return(postVersions[_id].date);\n    }\n\n    function readVerisonAuthor(uint _id) view public returns(string memory) {\n        return(postVersions[_id].author);\n    }\n\n    function readPostTitle(uint _id) view public returns(string memory) {\n        return(posts[_id].postTitle);\n    }\n\n    // be very careful when deleting users, because even with mustBeUser, it will cost money, just how solidity works\n    function del(uint _id) public mustBeUser(_id) { // del user, will del the user and make the index unusable, *BAD IMPLEMENTATION*\n        delete users[_id];\n    }\n\n    // internal, call just inside this contract, since view, it will not be on the blockchain view -> read-only function\n    function binarySearch(uint _id, uint start, uint end) view internal returns(bool) {\n        if (start > end) return false;\n        uint mid = end - start / 2;\n        uint userID = users[mid].id;\n        if (userID == _id) return true;\n        if (userID > _id) return binarySearch(_id, start, end-1);\n        else return binarySearch(_id, mid+1, end);\n    }\n\n    function searchUser(uint _id) view public returns(bool) {\n        return binarySearch(_id, 0, users.length-1);\n    }\n\n    function isStrEmpty(uint _id) view internal returns(bool) {\n        return keccak256(abi.encodePacked(users[_id-1].name)) == keccak256(abi.encodePacked(\"\"));\n    }\n\n\t// since pure it will not be on blockchain pure -> do not read or modify the state variables\n    function userError() pure internal {\n        revert(\"User does not exist\");\n    }\n\n    modifier mustBeUser(uint _id) {\n        require(searchUser(_id) == true && _id != 0, \"User does not exist\");\n        _;\n    }\n\n    function getNextId() public view returns (uint) {\n        return nextId;\n    }\n    \n}\n",
  "sourcePath": "/Users/alicedoherty/Development/SWENG-project-2022/contracts/PublishContent.sol",
  "compiler": {
    "name": "solc",
    "version": "0.5.16+commit.9c3226ce.Emscripten.clang"
  },
  "schemaVersion": "3.4.5",
  "updatedAt": "2022-03-27T20:54:06.730Z",
  "networkType": "ethereum",
  "devdoc": {
    "methods": {}
  },
  "userdoc": {
    "methods": {}
  }
}