{
  "contractName": "PublishContent",
  "abi": [
    {
      "constant": true,
      "inputs": [],
      "name": "nextPostId",
      "outputs": [
        {
          "internalType": "uint256",
          "name": "",
          "type": "uint256"
        }
      ],
      "payable": false,
      "stateMutability": "view",
      "type": "function"
    },
    {
      "constant": true,
      "inputs": [],
      "name": "nextPostVersionId",
      "outputs": [
        {
          "internalType": "uint256",
          "name": "",
          "type": "uint256"
        }
      ],
      "payable": false,
      "stateMutability": "view",
      "type": "function"
    },
    {
      "constant": true,
      "inputs": [
        {
          "internalType": "uint256",
          "name": "",
          "type": "uint256"
        }
      ],
      "name": "postVersions",
      "outputs": [
        {
          "internalType": "uint256",
          "name": "postVersionid",
          "type": "uint256"
        },
        {
          "internalType": "string",
          "name": "author",
          "type": "string"
        },
        {
          "internalType": "string",
          "name": "postTitle",
          "type": "string"
        },
        {
          "internalType": "string",
          "name": "postText",
          "type": "string"
        },
        {
          "internalType": "string",
          "name": "date",
          "type": "string"
        }
      ],
      "payable": false,
      "stateMutability": "view",
      "type": "function"
    },
    {
      "constant": true,
      "inputs": [
        {
          "internalType": "uint256",
          "name": "",
          "type": "uint256"
        }
      ],
      "name": "posts",
      "outputs": [
        {
          "internalType": "uint256",
          "name": "postId",
          "type": "uint256"
        }
      ],
      "payable": false,
      "stateMutability": "view",
      "type": "function"
    },
    {
      "constant": false,
      "inputs": [
        {
          "internalType": "string",
          "name": "postTitle",
          "type": "string"
        },
        {
          "internalType": "string",
          "name": "author",
          "type": "string"
        },
        {
          "internalType": "string",
          "name": "postText",
          "type": "string"
        },
        {
          "internalType": "string",
          "name": "date",
          "type": "string"
        }
      ],
      "name": "createPost",
      "outputs": [],
      "payable": false,
      "stateMutability": "nonpayable",
      "type": "function"
    },
    {
      "constant": false,
      "inputs": [
        {
          "internalType": "uint256",
          "name": "postId",
          "type": "uint256"
        },
        {
          "internalType": "string",
          "name": "postTitle",
          "type": "string"
        },
        {
          "internalType": "string",
          "name": "author",
          "type": "string"
        },
        {
          "internalType": "string",
          "name": "postText",
          "type": "string"
        },
        {
          "internalType": "string",
          "name": "date",
          "type": "string"
        }
      ],
      "name": "editPost",
      "outputs": [],
      "payable": false,
      "stateMutability": "nonpayable",
      "type": "function"
    },
    {
      "constant": true,
      "inputs": [],
      "name": "getPostCount",
      "outputs": [
        {
          "internalType": "uint256",
          "name": "",
          "type": "uint256"
        }
      ],
      "payable": false,
      "stateMutability": "view",
      "type": "function"
    },
    {
      "constant": true,
      "inputs": [
        {
          "internalType": "uint256",
          "name": "postId",
          "type": "uint256"
        }
      ],
      "name": "getPostVersions",
      "outputs": [
        {
          "internalType": "uint256[]",
          "name": "",
          "type": "uint256[]"
        }
      ],
      "payable": false,
      "stateMutability": "view",
      "type": "function"
    },
    {
      "constant": true,
      "inputs": [
        {
          "internalType": "uint256",
          "name": "postId",
          "type": "uint256"
        }
      ],
      "name": "getPostVersionsCount",
      "outputs": [
        {
          "internalType": "uint256",
          "name": "",
          "type": "uint256"
        }
      ],
      "payable": false,
      "stateMutability": "view",
      "type": "function"
    },
    {
      "constant": true,
      "inputs": [
        {
          "internalType": "uint256",
          "name": "postId",
          "type": "uint256"
        },
        {
          "internalType": "uint256",
          "name": "postVersionPos",
          "type": "uint256"
        }
      ],
      "name": "getPostVersionId",
      "outputs": [
        {
          "internalType": "uint256",
          "name": "",
          "type": "uint256"
        }
      ],
      "payable": false,
      "stateMutability": "view",
      "type": "function"
    },
    {
      "constant": true,
      "inputs": [
        {
          "internalType": "uint256",
          "name": "postVersionId",
          "type": "uint256"
        }
      ],
      "name": "readAuthor",
      "outputs": [
        {
          "internalType": "string",
          "name": "",
          "type": "string"
        }
      ],
      "payable": false,
      "stateMutability": "view",
      "type": "function"
    },
    {
      "constant": true,
      "inputs": [
        {
          "internalType": "uint256",
          "name": "postVersionId",
          "type": "uint256"
        }
      ],
      "name": "readTitle",
      "outputs": [
        {
          "internalType": "string",
          "name": "",
          "type": "string"
        }
      ],
      "payable": false,
      "stateMutability": "view",
      "type": "function"
    },
    {
      "constant": true,
      "inputs": [
        {
          "internalType": "uint256",
          "name": "postVersionId",
          "type": "uint256"
        }
      ],
      "name": "readText",
      "outputs": [
        {
          "internalType": "string",
          "name": "",
          "type": "string"
        }
      ],
      "payable": false,
      "stateMutability": "view",
      "type": "function"
    },
    {
      "constant": true,
      "inputs": [
        {
          "internalType": "uint256",
          "name": "postVersionId",
          "type": "uint256"
        }
      ],
      "name": "readDate",
      "outputs": [
        {
          "internalType": "string",
          "name": "",
          "type": "string"
        }
      ],
      "payable": false,
      "stateMutability": "view",
      "type": "function"
    }
  ],
  "bytecode": "0x60806040526000600255600060035534801561001a57600080fd5b506117748061002a6000396000f3fe608060405234801561001057600080fd5b50600436106100ea5760003560e01c806378f386b11161008c578063a982a10111610066578063a982a10114610a45578063bcc9540714610aec578063bd2ac6af14610b0a578063f341d7ce14610b8d576100ea565b806378f386b1146106d2578063794e5aa2146107795780639bfdd2e6146107bb576100ea565b80630d57f91f116100c85780630d57f91f146101f65780631da9d181146104765780635c09bd98146106685780637832b0a314610686576100ea565b806303bebdb4146100ef578063075d67d11461010d5780630b1e7f83146101b4575b600080fd5b6100f7610c34565b6040518082815260200191505060405180910390f35b6101396004803603602081101561012357600080fd5b8101908080359060200190929190505050610c3a565b6040518080602001828103825283818151815260200191508051906020019080838360005b8381101561017957808201518184015260208101905061015e565b50505050905090810190601f1680156101a65780820380516001836020036101000a031916815260200191505b509250505060405180910390f35b6101e0600480360360208110156101ca57600080fd5b8101908080359060200190929190505050610cfa565b6040518082815260200191505060405180910390f35b6104746004803603608081101561020c57600080fd5b810190808035906020019064010000000081111561022957600080fd5b82018360208201111561023b57600080fd5b8035906020019184600183028401116401000000008311171561025d57600080fd5b91908080601f016020809104026020016040519081016040528093929190818152602001838380828437600081840152601f19601f820116905080830192505050505050509192919290803590602001906401000000008111156102c057600080fd5b8201836020820111156102d257600080fd5b803590602001918460018302840111640100000000831117156102f457600080fd5b91908080601f016020809104026020016040519081016040528093929190818152602001838380828437600081840152601f19601f8201169050808301925050505050505091929192908035906020019064010000000081111561035757600080fd5b82018360208201111561036957600080fd5b8035906020019184600183028401116401000000008311171561038b57600080fd5b91908080601f016020809104026020016040519081016040528093929190818152602001838380828437600081840152601f19601f820116905080830192505050505050509192919290803590602001906401000000008111156103ee57600080fd5b82018360208201111561040057600080fd5b8035906020019184600183028401116401000000008311171561042257600080fd5b91908080601f016020809104026020016040519081016040528093929190818152602001838380828437600081840152601f19601f820116905080830192505050505050509192919290505050610d25565b005b6104a26004803603602081101561048c57600080fd5b8101908080359060200190929190505050610f20565b6040518086815260200180602001806020018060200180602001858103855289818151815260200191508051906020019080838360005b838110156104f45780820151818401526020810190506104d9565b50505050905090810190601f1680156105215780820380516001836020036101000a031916815260200191505b50858103845288818151815260200191508051906020019080838360005b8381101561055a57808201518184015260208101905061053f565b50505050905090810190601f1680156105875780820380516001836020036101000a031916815260200191505b50858103835287818151815260200191508051906020019080838360005b838110156105c05780820151818401526020810190506105a5565b50505050905090810190601f1680156105ed5780820380516001836020036101000a031916815260200191505b50858103825286818151815260200191508051906020019080838360005b8381101561062657808201518184015260208101905061060b565b50505050905090810190601f1680156106535780820380516001836020036101000a031916815260200191505b50995050505050505050505060405180910390f35b6106706111c3565b6040518082815260200191505060405180910390f35b6106bc6004803603604081101561069c57600080fd5b8101908080359060200190929190803590602001909291905050506111c9565b6040518082815260200191505060405180910390f35b6106fe600480360360208110156106e857600080fd5b8101908080359060200190929190505050611206565b6040518080602001828103825283818151815260200191508051906020019080838360005b8381101561073e578082015181840152602081019050610723565b50505050905090810190601f16801561076b5780820380516001836020036101000a031916815260200191505b509250505060405180910390f35b6107a56004803603602081101561078f57600080fd5b81019080803590602001909291905050506112c6565b6040518082815260200191505060405180910390f35b610a43600480360360a08110156107d157600080fd5b8101908080359060200190929190803590602001906401000000008111156107f857600080fd5b82018360208201111561080a57600080fd5b8035906020019184600183028401116401000000008311171561082c57600080fd5b91908080601f016020809104026020016040519081016040528093929190818152602001838380828437600081840152601f19601f8201169050808301925050505050505091929192908035906020019064010000000081111561088f57600080fd5b8201836020820111156108a157600080fd5b803590602001918460018302840111640100000000831117156108c357600080fd5b91908080601f016020809104026020016040519081016040528093929190818152602001838380828437600081840152601f19601f8201169050808301925050505050505091929192908035906020019064010000000081111561092657600080fd5b82018360208201111561093857600080fd5b8035906020019184600183028401116401000000008311171561095a57600080fd5b91908080601f016020809104026020016040519081016040528093929190818152602001838380828437600081840152601f19601f820116905080830192505050505050509192919290803590602001906401000000008111156109bd57600080fd5b8201836020820111156109cf57600080fd5b803590602001918460018302840111640100000000831117156109f157600080fd5b91908080601f016020809104026020016040519081016040528093929190818152602001838380828437600081840152601f19601f8201169050808301925050505050505091929192905050506112f0565b005b610a7160048036036020811015610a5b57600080fd5b810190808035906020019092919050505061142a565b6040518080602001828103825283818151815260200191508051906020019080838360005b83811015610ab1578082015181840152602081019050610a96565b50505050905090810190601f168015610ade5780820380516001836020036101000a031916815260200191505b509250505060405180910390f35b610af46114ea565b6040518082815260200191505060405180910390f35b610b3660048036036020811015610b2057600080fd5b81019080803590602001909291905050506114f6565b6040518080602001828103825283818151815260200191508051906020019060200280838360005b83811015610b79578082015181840152602081019050610b5e565b505050509050019250505060405180910390f35b610bb960048036036020811015610ba357600080fd5b810190808035906020019092919050505061156c565b6040518080602001828103825283818151815260200191508051906020019080838360005b83811015610bf9578082015181840152602081019050610bde565b50505050905090810190601f168015610c265780820380516001836020036101000a031916815260200191505b509250505060405180910390f35b60035481565b606060018281548110610c4957fe5b90600052602060002090600502016002018054600181600116156101000203166002900480601f016020809104026020016040519081016040528092919081815260200182805460018160011615610100020316600290048015610cee5780601f10610cc357610100808354040283529160200191610cee565b820191906000526020600020905b815481529060010190602001808311610cd157829003601f168201915b50505050509050919050565b60008181548110610d0757fe5b90600052602060002090600202016000915090508060000154905081565b60046000610d33919061162c565b600460035490806001815401808255809150509060018203906000526020600020016000909192909190915055506000604051806040016040528060025481526020016004805480602002602001604051908101604052809291908181526020018280548015610dc257602002820191906000526020600020905b815481526020019060010190808311610dae575b505050505081525090806001815401808255809150509060018203906000526020600020906002020160009091929091909150600082015181600001556020820151816001019080519060200190610e1b92919061164d565b5050505060016040518060a0016040528060035481526020018581526020018681526020018481526020018381525090806001815401808255809150509060018203906000526020600020906005020160009091929091909150600082015181600001556020820151816001019080519060200190610e9b92919061169a565b506040820151816002019080519060200190610eb892919061169a565b506060820151816003019080519060200190610ed592919061169a565b506080820151816004019080519060200190610ef292919061169a565b5050505060026000815480929190600101919050555060036000815480929190600101919050555050505050565b60018181548110610f2d57fe5b9060005260206000209060050201600091509050806000015490806001018054600181600116156101000203166002900480601f016020809104026020016040519081016040528092919081815260200182805460018160011615610100020316600290048015610fdf5780601f10610fb457610100808354040283529160200191610fdf565b820191906000526020600020905b815481529060010190602001808311610fc257829003601f168201915b505050505090806002018054600181600116156101000203166002900480601f01602080910402602001604051908101604052809291908181526020018280546001816001161561010002031660029004801561107d5780601f106110525761010080835404028352916020019161107d565b820191906000526020600020905b81548152906001019060200180831161106057829003601f168201915b505050505090806003018054600181600116156101000203166002900480601f01602080910402602001604051908101604052809291908181526020018280546001816001161561010002031660029004801561111b5780601f106110f05761010080835404028352916020019161111b565b820191906000526020600020905b8154815290600101906020018083116110fe57829003601f168201915b505050505090806004018054600181600116156101000203166002900480601f0160208091040260200160405190810160405280929190818152602001828054600181600116156101000203166002900480156111b95780601f1061118e576101008083540402835291602001916111b9565b820191906000526020600020905b81548152906001019060200180831161119c57829003601f168201915b5050505050905085565b60025481565b60008083815481106111d757fe5b906000526020600020906002020160010182815481106111f357fe5b9060005260206000200154905092915050565b60606001828154811061121557fe5b90600052602060002090600502016003018054600181600116156101000203166002900480601f0160208091040260200160405190810160405280929190818152602001828054600181600116156101000203166002900480156112ba5780601f1061128f576101008083540402835291602001916112ba565b820191906000526020600020905b81548152906001019060200180831161129d57829003601f168201915b50505050509050919050565b60008082815481106112d457fe5b9060005260206000209060020201600101805490509050919050565b60016040518060a001604052806003548152602001858152602001868152602001848152602001838152509080600181540180825580915050906001820390600052602060002090600502016000909192909190915060008201518160000155602082015181600101908051906020019061136c92919061169a565b50604082015181600201908051906020019061138992919061169a565b5060608201518160030190805190602001906113a692919061169a565b5060808201518160040190805190602001906113c392919061169a565b50505050600085815481106113d457fe5b906000526020600020906002020160010160035490806001815401808255809150509060018203906000526020600020016000909192909190915055506003600081548092919060010191905055505050505050565b60606001828154811061143957fe5b90600052602060002090600502016001018054600181600116156101000203166002900480601f0160208091040260200160405190810160405280929190818152602001828054600181600116156101000203166002900480156114de5780601f106114b3576101008083540402835291602001916114de565b820191906000526020600020905b8154815290600101906020018083116114c157829003601f168201915b50505050509050919050565b60008080549050905090565b60606000828154811061150557fe5b906000526020600020906002020160010180548060200260200160405190810160405280929190818152602001828054801561156057602002820191906000526020600020905b81548152602001906001019080831161154c575b50505050509050919050565b60606001828154811061157b57fe5b90600052602060002090600502016004018054600181600116156101000203166002900480601f0160208091040260200160405190810160405280929190818152602001828054600181600116156101000203166002900480156116205780601f106115f557610100808354040283529160200191611620565b820191906000526020600020905b81548152906001019060200180831161160357829003601f168201915b50505050509050919050565b508054600082559060005260206000209081019061164a919061171a565b50565b828054828255906000526020600020908101928215611689579160200282015b8281111561168857825182559160200191906001019061166d565b5b509050611696919061171a565b5090565b828054600181600116156101000203166002900490600052602060002090601f016020900481019282601f106116db57805160ff1916838001178555611709565b82800160010185558215611709579182015b828111156117085782518255916020019190600101906116ed565b5b509050611716919061171a565b5090565b61173c91905b80821115611738576000816000905550600101611720565b5090565b9056fea265627a7a72315820498f492072a2fc2282109cf5c79b6e4bc8e7ff0bb0a2ec2653444d02037b067264736f6c63430005100032",
  "source": "// SPDX-License-Identifier: MIT\npragma solidity >=0.4.21 <8.10.0;\n// pragma experimental ABIEncoderV2;\n\ncontract PublishContent {\n    struct Post {\n        uint postId;\n        // A post is associated with one or more \"versions\" of the post\n        // This postVersions[] will contain the indexes of its post versions stored in the public PostVersion[] postVersions array\n        uint[] postVersions;\n    }\n\n    struct PostVersion {\n        uint postVersionid;\n        string author;\n        string postTitle;\n        string postText; \n        string date;\n    }\n\n    // struct User {\n    //     uint id;            // identification used for quick searching\n    //     string name;        // e.g. author's name\n    //     uint[] postIds;     // post id's for all the posts the user owns\n    // }\n\n    // All posts\n    Post[] public posts;\n\n    // All versions of all posts\n    PostVersion[] public postVersions;\n\n    uint public nextPostId = 0;\n    uint public nextPostVersionId = 0;\n\n    uint[] initialPostVersions;\n\n    function createPost(string memory postTitle, \n                        string memory author, \n                        string memory postText,\n                        string memory date) public {   \n        delete initialPostVersions;\n        initialPostVersions.push(nextPostVersionId);\n\n        posts.push(Post(nextPostId, initialPostVersions)); \n\n        postVersions.push(PostVersion(nextPostVersionId, author, postTitle, postText, date)); \n\n        nextPostId++;\n        nextPostVersionId++;\n    }\n\n    function editPost(uint postId,\n                        string memory postTitle,\n                        string memory author,\n                        string memory postText,\n                        string memory date) public {\n        postVersions.push(PostVersion(nextPostVersionId, author, postTitle, postText, date));\n\n        posts[postId].postVersions.push(nextPostVersionId);\n\n        nextPostVersionId++;    \n    }\n\n    function getPostCount() public view returns(uint) {\n        return posts.length;\n    }\n\n    function getPostVersions(uint postId) public view returns (uint[] memory) {\n        return posts[postId].postVersions;\n    }\n\n    // Return number of post versions for a specific post (not public postVersions[])\n    function getPostVersionsCount(uint postId) public view returns(uint) {\n        return posts[postId].postVersions.length;\n    }\n\n    function getPostVersionId(uint postId, uint postVersionPos) view public returns(uint) {\n        return posts[postId].postVersions[postVersionPos];\n    }\n\n    function readAuthor(uint postVersionId) view public returns(string memory) {\n        return postVersions[postVersionId].author;\n    }\n\n    function readTitle(uint postVersionId) view public returns(string memory) {\n        return postVersions[postVersionId].postTitle;\n    }\n\n    function readText(uint postVersionId) view public returns(string memory) {\n        return postVersions[postVersionId].postText;\n    }\n\n    function readDate(uint postVersionId) view public returns(string memory) {\n        return(postVersions[postVersionId].date);\n    }\n    \n    // function readPostsfromPostVersions(uint _id) view public returns(uint[] memory) {\n    //     return(posts[_id].postVersions);\n    // }\n\n    // function readVersionPostVersionid(uint _id) view public returns(uint) {\n    //     return(postVersions[_id].postVersionid);\n    // }\n\n    // function readVersionPostTitle(uint _id) view public returns(string memory) {\n    //     return(postVersions[_id].postTitle);\n    // }\n\n    // function readVersionPostText(uint _id) view public returns(string memory) {\n    //     return(postVersions[_id].postText);\n    // }\n\n    // function readVerisonDate(uint _id) view public returns(string memory) {\n    //     return(postVersions[_id].date);\n    // }\n\n    // function readVerisonAuthor(uint _id) view public returns(string memory) {\n    //     return(postVersions[_id].author);\n    // }\n\n    // function readPostTitle(uint _id) view public returns(string memory) {\n    //     return(posts[_id].postTitle);\n    // }\n\n    // creates new User and initialises postIds[] with postId of their first post\n    // function create(string memory _name, uint[] memory postIds) public {\n    //     users.push(User(nextId, _name, postIds));\n    //     nextId++;\n    // }\n\n    // function pushPostToUser(uint _id, uint[] memory arrayId) public {\n    //     users[_id].postIds = arrayId;\n    // }\n\n    // function renamePostTitle(uint _id, string memory _postTitle) public mustBeUser(_id) {\n    //     posts[_id].postTitle = _postTitle;\n    // }\n\n    // basically deletes any post given an id \n    // function removePublish(uint _id) public mustBeUser(_id) { \n    //     delete users[_id];\n    // }\n\n    // function readName(uint _id) view public returns(string memory) {\n    //     if (searchUser(_id)) return(users[_id].name);\n    //     userError();\n    // }\n\n    // function readPostsIdsOfUser(uint _id) view public returns(uint[] memory) {\n    //     return(users[_id].postIds);\n    // }\n\n    // be very careful when deleting users, because even with mustBeUser, it will cost money, just how solidity works\n    // function del(uint _id) public mustBeUser(_id) { // del user, will del the user and make the index unusable, *BAD IMPLEMENTATION*\n    //     delete users[_id];\n    // }\n\n    // internal, call just inside this contract, since view, it will not be on the blockchain view -> read-only function\n    // function binarySearch(uint _id, uint start, uint end) view internal returns(bool) {\n    //     if (start > end) return false;\n    //     uint mid = end - start / 2;\n    //     uint userID = users[mid].id;\n    //     if (userID == _id) return true;\n    //     if (userID > _id) return binarySearch(_id, start, end-1);\n    //     else return binarySearch(_id, mid+1, end);\n    // }\n\n    // function searchUser(uint _id) view public returns(bool) {\n    //     return binarySearch(_id, 0, users.length-1);\n    // }\n\n    // function isStrEmpty(uint _id) view internal returns(bool) {\n    //     return keccak256(abi.encodePacked(users[_id-1].name)) == keccak256(abi.encodePacked(\"\"));\n    // }\n\n\t// since pure it will not be on blockchain pure -> do not read or modify the state variables\n    // function userError() pure internal {\n    //     revert(\"User does not exist\");\n    // }\n\n    // modifier mustBeUser(uint _id) {\n    //     require(searchUser(_id) == true && _id != 0, \"User does not exist\");\n    //     _;\n    // }\n\n    // function getNextId() public view returns (uint) {\n    //     return nextId;\n    // }\n    \n}\n",
  "sourcePath": "/Users/alicedoherty/Development/SWENG-project-2022/contracts/PublishContent.sol",
  "compiler": {
    "name": "solc",
    "version": "0.5.16+commit.9c3226ce.Emscripten.clang"
  },
  "schemaVersion": "3.4.5",
  "updatedAt": "2022-04-12T09:17:31.677Z",
  "networkType": "ethereum",
  "devdoc": {
    "methods": {}
  },
  "userdoc": {
    "methods": {}
  }
}