{
  "contractName": "PublishContent",
  "abi": [
    {
      "constant": true,
      "inputs": [],
      "name": "nextPostId",
      "outputs": [
        {
          "internalType": "uint256",
          "name": "",
          "type": "uint256"
        }
      ],
      "payable": false,
      "stateMutability": "view",
      "type": "function"
    },
    {
      "constant": true,
      "inputs": [],
      "name": "nextPostVersionId",
      "outputs": [
        {
          "internalType": "uint256",
          "name": "",
          "type": "uint256"
        }
      ],
      "payable": false,
      "stateMutability": "view",
      "type": "function"
    },
    {
      "constant": true,
      "inputs": [
        {
          "internalType": "uint256",
          "name": "",
          "type": "uint256"
        }
      ],
      "name": "postVersions",
      "outputs": [
        {
          "internalType": "uint256",
          "name": "postVersionid",
          "type": "uint256"
        },
        {
          "internalType": "string",
          "name": "author",
          "type": "string"
        },
        {
          "internalType": "string",
          "name": "postTitle",
          "type": "string"
        },
        {
          "internalType": "string",
          "name": "postText",
          "type": "string"
        },
        {
          "internalType": "string",
          "name": "date",
          "type": "string"
        }
      ],
      "payable": false,
      "stateMutability": "view",
      "type": "function"
    },
    {
      "constant": true,
      "inputs": [
        {
          "internalType": "uint256",
          "name": "",
          "type": "uint256"
        }
      ],
      "name": "posts",
      "outputs": [
        {
          "internalType": "uint256",
          "name": "postId",
          "type": "uint256"
        }
      ],
      "payable": false,
      "stateMutability": "view",
      "type": "function"
    },
    {
      "constant": false,
      "inputs": [
        {
          "internalType": "string",
          "name": "postTitle",
          "type": "string"
        },
        {
          "internalType": "string",
          "name": "author",
          "type": "string"
        },
        {
          "internalType": "string",
          "name": "postText",
          "type": "string"
        },
        {
          "internalType": "string",
          "name": "date",
          "type": "string"
        }
      ],
      "name": "createPost",
      "outputs": [],
      "payable": false,
      "stateMutability": "nonpayable",
      "type": "function"
    },
    {
      "constant": false,
      "inputs": [
        {
          "internalType": "uint256",
          "name": "postId",
          "type": "uint256"
        },
        {
          "internalType": "string",
          "name": "postTitle",
          "type": "string"
        },
        {
          "internalType": "string",
          "name": "author",
          "type": "string"
        },
        {
          "internalType": "string",
          "name": "postText",
          "type": "string"
        },
        {
          "internalType": "string",
          "name": "date",
          "type": "string"
        }
      ],
      "name": "editPost",
      "outputs": [],
      "payable": false,
      "stateMutability": "nonpayable",
      "type": "function"
    },
    {
      "constant": true,
      "inputs": [],
      "name": "getPostCount",
      "outputs": [
        {
          "internalType": "uint256",
          "name": "",
          "type": "uint256"
        }
      ],
      "payable": false,
      "stateMutability": "view",
      "type": "function"
    },
    {
      "constant": true,
      "inputs": [
        {
          "internalType": "uint256",
          "name": "postId",
          "type": "uint256"
        }
      ],
      "name": "getPostVersions",
      "outputs": [
        {
          "internalType": "uint256[]",
          "name": "",
          "type": "uint256[]"
        }
      ],
      "payable": false,
      "stateMutability": "view",
      "type": "function"
    },
    {
      "constant": true,
      "inputs": [
        {
          "internalType": "uint256",
          "name": "postId",
          "type": "uint256"
        }
      ],
      "name": "getPostVersionsCount",
      "outputs": [
        {
          "internalType": "uint256",
          "name": "",
          "type": "uint256"
        }
      ],
      "payable": false,
      "stateMutability": "view",
      "type": "function"
    },
    {
      "constant": true,
      "inputs": [
        {
          "internalType": "uint256",
          "name": "postId",
          "type": "uint256"
        },
        {
          "internalType": "uint256",
          "name": "postVersionPos",
          "type": "uint256"
        }
      ],
      "name": "getPostVersionId",
      "outputs": [
        {
          "internalType": "uint256",
          "name": "",
          "type": "uint256"
        }
      ],
      "payable": false,
      "stateMutability": "view",
      "type": "function"
    },
    {
      "constant": true,
      "inputs": [
        {
          "internalType": "uint256",
          "name": "postVersionId",
          "type": "uint256"
        }
      ],
      "name": "readAuthor",
      "outputs": [
        {
          "internalType": "string",
          "name": "",
          "type": "string"
        }
      ],
      "payable": false,
      "stateMutability": "view",
      "type": "function"
    },
    {
      "constant": true,
      "inputs": [
        {
          "internalType": "uint256",
          "name": "postVersionId",
          "type": "uint256"
        }
      ],
      "name": "readTitle",
      "outputs": [
        {
          "internalType": "string",
          "name": "",
          "type": "string"
        }
      ],
      "payable": false,
      "stateMutability": "view",
      "type": "function"
    },
    {
      "constant": true,
      "inputs": [
        {
          "internalType": "uint256",
          "name": "postVersionId",
          "type": "uint256"
        }
      ],
      "name": "readText",
      "outputs": [
        {
          "internalType": "string",
          "name": "",
          "type": "string"
        }
      ],
      "payable": false,
      "stateMutability": "view",
      "type": "function"
    },
    {
      "constant": true,
      "inputs": [
        {
          "internalType": "uint256",
          "name": "postVersionId",
          "type": "uint256"
        }
      ],
      "name": "readDate",
      "outputs": [
        {
          "internalType": "string",
          "name": "",
          "type": "string"
        }
      ],
      "payable": false,
      "stateMutability": "view",
      "type": "function"
    }
  ],
  "bytecode": "0x60806040526000600255600060035534801561001a57600080fd5b506113ec8061002a6000396000f3fe608060405234801561001057600080fd5b50600436106100ea5760003560e01c806378f386b11161008c578063a982a10111610066578063a982a10114610287578063bcc95407146102b7578063bd2ac6af146102d5578063f341d7ce14610305576100ea565b806378f386b11461020b578063794e5aa21461023b5780639bfdd2e61461026b576100ea565b80630d57f91f116100c85780630d57f91f1461016d5780631da9d181146101895780635c09bd98146101bd5780637832b0a3146101db576100ea565b806303bebdb4146100ef578063075d67d11461010d5780630b1e7f831461013d575b600080fd5b6100f7610335565b60405161010491906111f2565b60405180910390f35b61012760048036036101229190810190610f6c565b61033b565b60405161013491906111d0565b60405180910390f35b61015760048036036101529190810190610f6c565b6103fb565b60405161016491906111f2565b60405180910390f35b61018760048036036101829190810190610ea9565b610426565b005b6101a3600480360361019e9190810190610f6c565b610621565b6040516101b495949392919061120d565b60405180910390f35b6101c56108c4565b6040516101d291906111f2565b60405180910390f35b6101f560048036036101f0919081019061106c565b6108ca565b60405161020291906111f2565b60405180910390f35b61022560048036036102209190810190610f6c565b610907565b60405161023291906111d0565b60405180910390f35b61025560048036036102509190810190610f6c565b6109c7565b60405161026291906111f2565b60405180910390f35b61028560048036036102809190810190610f95565b6109f1565b005b6102a1600480360361029c9190810190610f6c565b610b2b565b6040516102ae91906111d0565b60405180910390f35b6102bf610beb565b6040516102cc91906111f2565b60405180910390f35b6102ef60048036036102ea9190810190610f6c565b610bf7565b6040516102fc91906111ae565b60405180910390f35b61031f600480360361031a9190810190610f6c565b610c6d565b60405161032c91906111d0565b60405180910390f35b60035481565b60606001828154811061034a57fe5b90600052602060002090600502016002018054600181600116156101000203166002900480601f0160208091040260200160405190810160405280929190818152602001828054600181600116156101000203166002900480156103ef5780601f106103c4576101008083540402835291602001916103ef565b820191906000526020600020905b8154815290600101906020018083116103d257829003601f168201915b50505050509050919050565b6000818154811061040857fe5b90600052602060002090600202016000915090508060000154905081565b600460006104349190610d2d565b6004600354908060018154018082558091505090600182039060005260206000200160009091929091909150555060006040518060400160405280600254815260200160048054806020026020016040519081016040528092919081815260200182805480156104c357602002820191906000526020600020905b8154815260200190600101908083116104af575b50505050508152509080600181540180825580915050906001820390600052602060002090600202016000909192909190915060008201518160000155602082015181600101908051906020019061051c929190610d4e565b5050505060016040518060a001604052806003548152602001858152602001868152602001848152602001838152509080600181540180825580915050906001820390600052602060002090600502016000909192909190915060008201518160000155602082015181600101908051906020019061059c929190610d9b565b5060408201518160020190805190602001906105b9929190610d9b565b5060608201518160030190805190602001906105d6929190610d9b565b5060808201518160040190805190602001906105f3929190610d9b565b5050505060026000815480929190600101919050555060036000815480929190600101919050555050505050565b6001818154811061062e57fe5b9060005260206000209060050201600091509050806000015490806001018054600181600116156101000203166002900480601f0160208091040260200160405190810160405280929190818152602001828054600181600116156101000203166002900480156106e05780601f106106b5576101008083540402835291602001916106e0565b820191906000526020600020905b8154815290600101906020018083116106c357829003601f168201915b505050505090806002018054600181600116156101000203166002900480601f01602080910402602001604051908101604052809291908181526020018280546001816001161561010002031660029004801561077e5780601f106107535761010080835404028352916020019161077e565b820191906000526020600020905b81548152906001019060200180831161076157829003601f168201915b505050505090806003018054600181600116156101000203166002900480601f01602080910402602001604051908101604052809291908181526020018280546001816001161561010002031660029004801561081c5780601f106107f15761010080835404028352916020019161081c565b820191906000526020600020905b8154815290600101906020018083116107ff57829003601f168201915b505050505090806004018054600181600116156101000203166002900480601f0160208091040260200160405190810160405280929190818152602001828054600181600116156101000203166002900480156108ba5780601f1061088f576101008083540402835291602001916108ba565b820191906000526020600020905b81548152906001019060200180831161089d57829003601f168201915b5050505050905085565b60025481565b60008083815481106108d857fe5b906000526020600020906002020160010182815481106108f457fe5b9060005260206000200154905092915050565b60606001828154811061091657fe5b90600052602060002090600502016003018054600181600116156101000203166002900480601f0160208091040260200160405190810160405280929190818152602001828054600181600116156101000203166002900480156109bb5780601f10610990576101008083540402835291602001916109bb565b820191906000526020600020905b81548152906001019060200180831161099e57829003601f168201915b50505050509050919050565b60008082815481106109d557fe5b9060005260206000209060020201600101805490509050919050565b60016040518060a0016040528060035481526020018581526020018681526020018481526020018381525090806001815401808255809150509060018203906000526020600020906005020160009091929091909150600082015181600001556020820151816001019080519060200190610a6d929190610d9b565b506040820151816002019080519060200190610a8a929190610d9b565b506060820151816003019080519060200190610aa7929190610d9b565b506080820151816004019080519060200190610ac4929190610d9b565b5050505060008581548110610ad557fe5b906000526020600020906002020160010160035490806001815401808255809150509060018203906000526020600020016000909192909190915055506003600081548092919060010191905055505050505050565b606060018281548110610b3a57fe5b90600052602060002090600502016001018054600181600116156101000203166002900480601f016020809104026020016040519081016040528092919081815260200182805460018160011615610100020316600290048015610bdf5780601f10610bb457610100808354040283529160200191610bdf565b820191906000526020600020905b815481529060010190602001808311610bc257829003601f168201915b50505050509050919050565b60008080549050905090565b606060008281548110610c0657fe5b9060005260206000209060020201600101805480602002602001604051908101604052809291908181526020018280548015610c6157602002820191906000526020600020905b815481526020019060010190808311610c4d575b50505050509050919050565b606060018281548110610c7c57fe5b90600052602060002090600502016004018054600181600116156101000203166002900480601f016020809104026020016040519081016040528092919081815260200182805460018160011615610100020316600290048015610d215780601f10610cf657610100808354040283529160200191610d21565b820191906000526020600020905b815481529060010190602001808311610d0457829003601f168201915b50505050509050919050565b5080546000825590600052602060002090810190610d4b9190610e1b565b50565b828054828255906000526020600020908101928215610d8a579160200282015b82811115610d89578251825591602001919060010190610d6e565b5b509050610d979190610e1b565b5090565b828054600181600116156101000203166002900490600052602060002090601f016020900481019282601f10610ddc57805160ff1916838001178555610e0a565b82800160010185558215610e0a579182015b82811115610e09578251825591602001919060010190610dee565b5b509050610e179190610e1b565b5090565b610e3d91905b80821115610e39576000816000905550600101610e21565b5090565b90565b600082601f830112610e5157600080fd5b8135610e64610e5f826112a9565b61127c565b91508082526020830160208301858383011115610e8057600080fd5b610e8b83828461133f565b50505092915050565b600081359050610ea381611392565b92915050565b60008060008060808587031215610ebf57600080fd5b600085013567ffffffffffffffff811115610ed957600080fd5b610ee587828801610e40565b945050602085013567ffffffffffffffff811115610f0257600080fd5b610f0e87828801610e40565b935050604085013567ffffffffffffffff811115610f2b57600080fd5b610f3787828801610e40565b925050606085013567ffffffffffffffff811115610f5457600080fd5b610f6087828801610e40565b91505092959194509250565b600060208284031215610f7e57600080fd5b6000610f8c84828501610e94565b91505092915050565b600080600080600060a08688031215610fad57600080fd5b6000610fbb88828901610e94565b955050602086013567ffffffffffffffff811115610fd857600080fd5b610fe488828901610e40565b945050604086013567ffffffffffffffff81111561100157600080fd5b61100d88828901610e40565b935050606086013567ffffffffffffffff81111561102a57600080fd5b61103688828901610e40565b925050608086013567ffffffffffffffff81111561105357600080fd5b61105f88828901610e40565b9150509295509295909350565b6000806040838503121561107f57600080fd5b600061108d85828601610e94565b925050602061109e85828601610e94565b9150509250929050565b60006110b48383611190565b60208301905092915050565b60006110cb826112e5565b6110d58185611313565b93506110e0836112d5565b8060005b838110156111115781516110f888826110a8565b975061110383611306565b9250506001810190506110e4565b5085935050505092915050565b6000611129826112fb565b6111338185611324565b935061114381856020860161134e565b61114c81611381565b840191505092915050565b6000611162826112f0565b61116c8185611324565b935061117c81856020860161134e565b61118581611381565b840191505092915050565b61119981611335565b82525050565b6111a881611335565b82525050565b600060208201905081810360008301526111c881846110c0565b905092915050565b600060208201905081810360008301526111ea818461111e565b905092915050565b6000602082019050611207600083018461119f565b92915050565b600060a082019050611222600083018861119f565b81810360208301526112348187611157565b905081810360408301526112488186611157565b9050818103606083015261125c8185611157565b905081810360808301526112708184611157565b90509695505050505050565b6000604051905081810181811067ffffffffffffffff8211171561129f57600080fd5b8060405250919050565b600067ffffffffffffffff8211156112c057600080fd5b601f19601f8301169050602081019050919050565b6000819050602082019050919050565b600081519050919050565b600081519050919050565b600081519050919050565b6000602082019050919050565b600082825260208201905092915050565b600082825260208201905092915050565b6000819050919050565b82818337600083830152505050565b60005b8381101561136c578082015181840152602081019050611351565b8381111561137b576000848401525b50505050565b6000601f19601f8301169050919050565b61139b81611335565b81146113a657600080fd5b5056fea365627a7a72315820bc6d08441602c85f22015f22985729169d049230e1be7c9ce5079cca85720ec96c6578706572696d656e74616cf564736f6c63430005100040",
  "source": "// SPDX-License-Identifier: MIT\npragma solidity >=0.4.21 <8.10.0;\npragma experimental ABIEncoderV2;\n\ncontract PublishContent {\n    struct Post {\n        //string postTitle;\n        uint postId;\n        uint[] postVersions;\n        //uint postVersionsCount;\n    }\n\n    struct PostVersion {\n        uint postVersionid; // same as postId for Posts\n        string author;\n        string postTitle; // same as postTitle for Posts\n        string postText; \n        string date;\n    }\n\n    //  struct User {\n    //     uint id;            // identification used for quick searching\n    //     string name;        // e.g. author's name\n    //     uint[] postIds;     // post id's for all the posts the user owns\n    // }\n\n    Post[] public posts;   // all posts \n    //uint public postCount = 0;\n    //User[] public users;\n    PostVersion[] public postVersions; // all versions of posts\n\n    // uint public nextId = 0;\n    uint public nextPostId = 0;\n    uint public nextPostVersionId = 0;\n\n    uint[] initialPostVersions;\n\n    function createPost(string memory postTitle, \n                        string memory author, \n                        string memory postText,\n                        string memory date) public {   \n        delete initialPostVersions;\n        initialPostVersions.push(nextPostVersionId);\n        posts.push(Post(nextPostId, initialPostVersions)); \n        postVersions.push(PostVersion(nextPostVersionId, author, postTitle, postText, date));   \n        nextPostId++;\n        nextPostVersionId++;\n        //postCount++;\n    }\n    function editPost(uint postId,\n                        string memory postTitle,\n                        string memory author,\n                        string memory postText,\n                        string memory date) public {\n        postVersions.push(PostVersion(nextPostVersionId, author, postTitle, postText, date));\n        posts[postId].postVersions.push(nextPostVersionId);\n        nextPostVersionId++;\n        //posts[postId].postVersionsCount = posts[postId].postVersionsCount++;\n    }\n\n    function getPostCount() public view returns(uint) {\n        return posts.length;\n    }\n\n    function getPostVersions(uint postId) public view returns (uint[] memory) {\n        return posts[postId].postVersions;\n    }\n\n    // Return number of post versions for a specific post (not public postVersions[])\n    function getPostVersionsCount(uint postId) public view returns(uint) {\n        return posts[postId].postVersions.length;\n    }\n\n    function getPostVersionId(uint postId, uint postVersionPos) view public returns(uint) {\n        return posts[postId].postVersions[postVersionPos];\n    }\n\n    function readAuthor(uint postVersionId) view public returns(string memory) {\n        return postVersions[postVersionId].author;\n    }\n\n    function readTitle(uint postVersionId) view public returns(string memory) {\n        return postVersions[postVersionId].postTitle;\n    }\n\n    function readText(uint postVersionId) view public returns(string memory) {\n        return postVersions[postVersionId].postText;\n    }\n\n    function readDate(uint postVersionId) view public returns(string memory) {\n        return(postVersions[postVersionId].date);\n    }\n    \n\n    // function readPostsfromPostVersions(uint _id) view public returns(uint[] memory) {\n    //     return(posts[_id].postVersions);\n    // }\n\n    // function readVersionPostVersionid(uint _id) view public returns(uint) {\n    //     return(postVersions[_id].postVersionid);\n    // }\n\n    // function readVersionPostTitle(uint _id) view public returns(string memory) {\n    //     return(postVersions[_id].postTitle);\n    // }\n\n    // function readVersionPostText(uint _id) view public returns(string memory) {\n    //     return(postVersions[_id].postText);\n    // }\n\n    // function readVerisonDate(uint _id) view public returns(string memory) {\n    //     return(postVersions[_id].date);\n    // }\n\n    // function readVerisonAuthor(uint _id) view public returns(string memory) {\n    //     return(postVersions[_id].author);\n    // }\n\n    // function readPostTitle(uint _id) view public returns(string memory) {\n    //     return(posts[_id].postTitle);\n    // }\n\n    // creates new User and initialises postIds[] with postId of their first post\n    // function create(string memory _name, uint[] memory postIds) public {\n    //     users.push(User(nextId, _name, postIds));\n    //     nextId++;\n    // }\n\n    // function pushPostToUser(uint _id, uint[] memory arrayId) public {\n    //     users[_id].postIds = arrayId;\n    // }\n\n    // function renamePostTitle(uint _id, string memory _postTitle) public mustBeUser(_id) {\n    //     posts[_id].postTitle = _postTitle;\n    // }\n\n    // basically deletes any post given an id \n    // function removePublish(uint _id) public mustBeUser(_id) { \n    //     delete users[_id];\n    // }\n\n    // function readName(uint _id) view public returns(string memory) {\n    //     if (searchUser(_id)) return(users[_id].name);\n    //     userError();\n    // }\n\n    // function readPostsIdsOfUser(uint _id) view public returns(uint[] memory) {\n    //     return(users[_id].postIds);\n    // }\n\n    // be very careful when deleting users, because even with mustBeUser, it will cost money, just how solidity works\n    // function del(uint _id) public mustBeUser(_id) { // del user, will del the user and make the index unusable, *BAD IMPLEMENTATION*\n    //     delete users[_id];\n    // }\n\n    // internal, call just inside this contract, since view, it will not be on the blockchain view -> read-only function\n    // function binarySearch(uint _id, uint start, uint end) view internal returns(bool) {\n    //     if (start > end) return false;\n    //     uint mid = end - start / 2;\n    //     uint userID = users[mid].id;\n    //     if (userID == _id) return true;\n    //     if (userID > _id) return binarySearch(_id, start, end-1);\n    //     else return binarySearch(_id, mid+1, end);\n    // }\n\n    // function searchUser(uint _id) view public returns(bool) {\n    //     return binarySearch(_id, 0, users.length-1);\n    // }\n\n    // function isStrEmpty(uint _id) view internal returns(bool) {\n    //     return keccak256(abi.encodePacked(users[_id-1].name)) == keccak256(abi.encodePacked(\"\"));\n    // }\n\n\t// since pure it will not be on blockchain pure -> do not read or modify the state variables\n    // function userError() pure internal {\n    //     revert(\"User does not exist\");\n    // }\n\n    // modifier mustBeUser(uint _id) {\n    //     require(searchUser(_id) == true && _id != 0, \"User does not exist\");\n    //     _;\n    // }\n\n    // function getNextId() public view returns (uint) {\n    //     return nextId;\n    // }\n    \n}\n",
  "sourcePath": "/Users/alicedoherty/Development/SWENG-project-2022/contracts/PublishContent.sol",
  "compiler": {
    "name": "solc",
    "version": "0.5.16+commit.9c3226ce.Emscripten.clang"
  },
  "schemaVersion": "3.4.5",
  "updatedAt": "2022-03-28T19:35:33.155Z",
  "networkType": "ethereum",
  "devdoc": {
    "methods": {}
  },
  "userdoc": {
    "methods": {}
  }
}